:020000040800F2
:10000000F005002001010008071D0008C91B0008B9
:10001000051D0008F10600086D250008000000001D
:1000200000000000000000000000000005200008A3
:10003000C307000800000000091D00080720000891
:100040001B0100081B0100081B0100081B01000820
:100050001B0100081B0100081B0100081B01000810
:100060001B0100081B0100081B0100081B01000800
:100070001B0100081B010008810700088D0700080C
:100080001B0100081B0100081B0100081B010008E0
:100090001B0100081B0100081B0100081B010008D0
:1000A0001B0100081B0100081B0100081B010008C0
:1000B0001B0100081B010008000000001B010008D4
:1000C0001B01000800000000000000001B010008E8
:1000D00000000000ED2300081B01000800000000E4
:1000E0001B0100081B0100081B010008DFF80CD0F1
:1000F00000F06EFA0048004769300008F005002063
:100100000648804706480047FEE7FEE7FEE7FEE7B1
:10011000FEE7FEE7FEE7FEE7FEE7FEE789200008D0
:10012000ED000008202A04DB203A21FA02F0002129
:10013000704721FA02F3D040C2F1200291400843F7
:100140001946704740EA01039B0703D009E008C93C
:10015000121F08C0042AFAD203E011F8013B00F88C
:10016000013B521EF9D27047D2B201E000F8012BD8
:10017000491EFBD270470022F6E710B513460A4627
:1001800004461946FFF7F0FF204610BD421C10F848
:10019000011B0029FBD1801A704710B5002200E036
:1001A000521C835C8C5CA34201D1002BF8D1D8B2E5
:1001B000E1B2401A10BD30B504460020034600E00D
:1001C0005B1C934203D2E05CCD5C401BF8D030BD99
:1001D00030B50B46014600202022012409E021FA17
:1001E00002F59D4205D303FA02F5491B04FA02F514
:1001F0002844151EA2F10102F1DC30BD2DE9F05FAB
:100200000546002092469B46884606468146402485
:100210001BE02846414647462246FFF783FF5346E8
:100220005A46C01A914110D311461846224600F092
:10023000E1F92D1A67EB01084F4622460120002103
:1002400000F0D8F917EB00094E41201EA4F101047B
:10025000DFDC484631462A464346BDE8F09F2DE99B
:10026000FE4F804681EA0300C00F0C46009021F04B
:10027000004123F00045B8EB0200A94105D24046F9
:10028000214690461C460B46024623F00040104390
:1002900047D0270DC7F30A00C3F30A510290401A52
:1002A000019040286BDAC3F3130040F4801B0098E0
:1002B000924620B10023D2EB030A63EB0B0B0198AB
:1002C0005946C0F14002504600F094F906460D46EA
:1002D00050465946019A00F09CF910EB0800614124
:1002E000002487EA115284EAE7731A4340D0009A47
:1002F00062B3019A012A4FEA075215DC001B61EB39
:1003000002014FF0004202EA0752CDE90042001C10
:1003100041F5801132462B4600F09CF903B0BDE850
:10032000F08F40462146F9E7001B61EB0201001CFB
:1003300041F5801300185B412018A2F5001747EB28
:10034000030140EAD570B6196D4111E06D084FEA1E
:10035000360645EAC0754FEA0752001B61EB020101
:10036000001C41F5801149084FEA30000019514145
:1003700032462B4603B0BDE8F04F00F05CB9009860
:10038000012240000023D0EB020263EBE0730098EF
:1003900021464FEAE074B8EB000061EB0401E9E7A5
:1003A00083F000435BE781F0004158E72DE9FE4F01
:1003B00081EA030404F0004421F0004100944FF06E
:1003C000000B23F0004350EA01045ED052EA03041C
:1003D0005BD0C3F30A54C1F30A552C44A4F2F3349E
:1003E0000194A0FB0254C1F3130141F48011C3F343
:1003F000130343F4801301FB024400FB034E840A01
:10040000970A44EA815447EA8357A4FB0768029598
:100410008D0A05FB07854FEA932C04FB0C54270536
:10042000029D4FEA065847EA1637B5EB08056EEB12
:10043000070C870E920E47EA811742EA8312A7FB48
:100440000201B6EB0B0164EB00042B0D43EA0C3305
:100450005E1844EB1C50DA465146E7FB0201C5F337
:1004600013044FEA0B3343EA14534FEA0432019C5E
:1004700043EA0603A4F10C040294009CCDE900B405
:1004800000F0E8F803B0BDE8F08F00200146F9E77E
:100490002DE9F04D81EA030404F0004B21F0004502
:1004A00014464FF0000A23F0004150EA050220D024
:1004B00054EA01021DD0C5F30A570246C5F31303DF
:1004C000C1F31300C1F30A5640F4801543F48013BE
:1004D000A7EB0608101BD64608F2FD3873EB0500A3
:1004E00002D308F1010801E092185B41B8F1000F56
:1004F00003DA00200146BDE8F08D00204FF48011A2
:10050000064684460EE0171B73EB050705D3121B46
:1005100063EB050306434CEA010C49084FEA30003F
:1005200092185B4150EA0107EDD152EA030012D064
:1005300082EA040083EA0501084305D0101BAB41A1
:1005400006D20122002306E000224FF0004302E021
:100550006FF0010253101AEB06004CEB085110EB40
:100560000A0041EB0B01BDE8F04D00F064B8C1F3A7
:100570000A52C1F3130140F2FF3341F480119A4251
:1005800002DA00200146704740F233439A42A2F259
:10059000334202DC5242FFF7C5BD00F02BB8000029
:1005A00030B5041E71F1000404DB4FF000444042FA
:1005B00064EB0101141E73F1000405DB1C464FF0CF
:1005C0000043524263EB0403994208BF904230BD9E
:1005D000064C074D06E0E06840F0010394E8070090
:1005E00098471034AC42F6D3FFF784FDF030000892
:1005F00010310008202A04DB203A00FA02F1002022
:1006000070479140C2F1200320FA03F31943904050
:100610007047202A06DBCB17203A41FA02F043EA62
:10062000E07306E041FA02F3D040C2F120029140AB
:1006300008431946704710B5141E73F1000408DA18
:10064000401C41F1000192185B411A4301D120F096
:10065000010010BD2DE9F04D92469B4611B1B1FA53
:1006600081F202E0B0FA80F220329046FFF7C2FF3A
:1006700004460F4640EA0A0041EA0B0153465A4637
:10068000084313D0114653EA010019D0C8F14002C3
:100690005046FFF747FD05460E465046594642462E
:1006A000FFF7A8FF084305D0012004E020463946A3
:1006B000BDE8F08D0020054346EAE0762C43374341
:1006C0000A986305E40AA0EB08000022FD0A44EA48
:1006D00047540A3002D500200146E9E70105101908
:1006E0006941DDE9084500196941BDE8F04DA2E71F
:1006F000FEE7000001228021014800F0D5BA000089
:10070000000C014038B50F48816941F00801816152
:1007100080690D4C00F008000090012280212046E5
:1007200000F0C2FA094980200860012048600020DA
:1007300088600320C860204600F0D6F9BDE8384044
:10074000FFF7D8BF00100240000C0140D00100208C
:1007500000228021014800F0A7BA0000000C0140EF
:100760000EB500200090019002906A460121B4204D
:1007700001F094FB9DF8000000F080000EBD000029
:10078000014800F08FB8000034010020014800F05B
:1007900089B80000F000002030B590F840500124E6
:1007A000AC40C56B6C60046863604368102B0368E1
:1007B00003D099600068C26030BD9A600068C16073
:1007C00030BD704710B590F821100022022905D0E5
:1007D0000421816380F82020012010BD01680B688E
:1007E00023F00E030B6001680B6823F001030B601C
:1007F00090F84030C46B012101FA03F3636080F884
:10080000211080F82020104610BD000010B590F88F
:1008100021100024022903D00421816301243DE03A
:1008200001680A6822F00E020A6001680A6822F074
:1008300001020A601A4A0168914201D1012121E0B6
:10084000174A1432914201D110211BE0144A283278
:10085000914201D1891515E0114A3C32914201D1F2
:1008600089140FE00E4A5032914202D14FF4803188
:1008700008E00B4A6432914202D14FF4801101E04A
:100880004FF08071064A083A5160012180F821102A
:10089000002180F82010416B01B18847204610BD2F
:1008A000080002402DE9F05FC16B0C6801680B681D
:1008B000D0F840C0042202FA0CF2494DDFF824A11E
:1008C000494E4A4FDFF828B1DFF828E122422CD008
:1008D0005A072AD50A68920603D40A6822F004024D
:1008E0000A600168A94201D1042219E0514501D1F1
:1008F000402215E0B14202D14FF4806210E0B942CB
:1009000002D14FF480420BE0594502D14FF48022CE
:1009100006E0714502D14FF4800201E04FF08062A1
:100920002F4908394A60C16A3BE04FF0020808FAD3
:100930000CF818EA040F4FF000094FF0010235D00F
:100940005FEA837832D50B689B0605D40B6823F0E9
:100950000A030B6080F821200168A94201D102221C
:1009600019E0514501D1202215E0B14202D14FF4E6
:10097000007210E0B94202D14FF400520BE0594529
:1009800002D14FF4003206E0714502D14FF400125B
:1009900001E04FF00072124908394A6080F8209057
:1009A000816A00291AD0BDE8F05F0847082505FADA
:1009B0000CF5254212D01B0710D50B6823F00E034F
:1009C0000B6090F84010C36B02FA01F1596082632A
:1009D00080F8212080F82090016BE2E7BDE8F09FCD
:1009E000080002401C000240300002404400024067
:1009F000580002406C00024030B528B308C81349C3
:100A000014221944B1FBF2F18900C16310498163DA
:100A1000022141771A6843F6F0718A43D0E9001445
:100A20002143D0E902452C43214304692143446911
:100A3000214384692143114319600021416301224C
:100A400042770177084630BD012030BDF8FFFDBF79
:100A50000000024070B5044690F8200000250128EF
:100A60000CD0012084F8200094F821600020012E91
:100A700006D084F820000225284670BD022070BDF3
:100A8000022684F82160A0632068066826F001062B
:100A900006602046FFF780FEE06A002820680168B3
:100AA00002D041F00E0106E021F00401016020684F
:100AB000016841F00A0101602068016841F001010C
:100AC0000160D9E770B5044600F0F4F80546601CF3
:100AD00002D004480078044400F0ECF8401BA04227
:100AE000FAD370BD000000202DE9F84FDFF89C918B
:100AF000002409F1040A0AF1040B23460F270BF125
:100B0000040EBBE00125A5402A40AA4276D1DFF8B9
:100B100080C14E68A6EB0C0866452BD00DDC032E79
:100B200034D005DC36B3012E19D0022E2FD11BE0B4
:100B3000112E16D0122E2AD119E0B8F5881F19D01F
:100B400006DCB8F5803F15D0B8F5801F1FD111E045
:100B5000B8F5001F0ED0B8F5041F18D10AE0CB6815
:100B600015E0CB681B1D12E0CB6808330FE0CB68A3
:100B70000C330CE08B682BB1012B4FF0080303D032
:100B8000456104E0042302E0056100E00023FF2A40
:100B900001D8064601E000F104064FEA840501D9B8
:100BA000A5F12005D6F8008007FA05FC28EA0C0814
:100BB00003FA05F548EA0508C6F800804D68ED001F
:100BC0005BD5344DAE6946F00106AE61AD6924F0E7
:100BD000030605F0010500952F4D06EB050CDCF82A
:100BE0000850A607360F07FA06F825EA0805DFF8C9
:100BF000AC80404503D14FF0000810E03DE0DFF845
:100C0000A080404502D14FF0010808E0DFF8948051
:100C1000404502D14FF0020801E04FF0030808FA06
:100C200006F848EA0508CCF808804D68D9F8006055
:100C3000ED034D4601D5164300E096432E604D6806
:100C4000DAF80060AD03554601D5164300E096433F
:100C50002E604D68DBF80060ED025D4601D516435D
:100C600000E096432E604D68DEF80060AD027546E8
:100C700001D5164300E096432E60641C0A6832FAE0
:100C800004F57FF43FAFBDE8F88F00000004014099
:100C90000000111000100240000001400008014057
:100CA000000C0140001001400AB1016170470904C5
:100CB000FBE700000148806870470000000000204A
:100CC000024881680278114481607047000000206A
:100CD000074810B5016841F010010160032000F0E1
:100CE00075F8002000F006F800F024F8002010BD90
:100CF0000020024070B50D4D04464FF47A712878FB
:100D0000B1FBF0F00A490968B1FBF0F000F072FDA8
:100D100048B9102C07D200222146501E00F036F8A8
:100D200000206C6070BD012070BD0000000000203C
:100D30000C0000200C4808B5816941F00101816177
:100D4000816901F001010091C16941F08051C161E7
:100D5000C06900F0805000900448416821F0E061D3
:100D600041F08071416008BD001002400000014068
:100D7000002809DB00F01F0201219140400980009A
:100D800000F1E020C0F8001170470000F0B40E4BF5
:100D90001B680C46C3F30223C3F10705042D00D9D9
:100DA0000425191D072901D2002300E0DB1E0126BE
:100DB00006FA05F1491E214099409E40761E1640D4
:100DC0003143F0BC01F00ABC0CED00E0064900F034
:100DD000070208684FF6FF03184040EA0220034A62
:100DE00010430860704700000CED00E00000FA05B9
:100DF0002DE9F0470F46050061D0434E306800F002
:100E00000700B84209D2306820F00700384330604C
:100E1000306800F00700B84251D128683B4C810788
:100E200012D5400703D5606840F4E0606060287820
:100E3000000703D5606840F4605060606068A9688E
:100E400020F0F000084360602878C00728D0686868
:100E5000012810D02168022810D0890700292EDA35
:100E6000616821F0030101436160FFF723FF8046C1
:100E700041F288390DE021688903EFE78901EDE748
:100E8000FFF718FFA0EB0801494502D90320BDE890
:100E9000F0876068696800F00C00B0EB810FEFD15B
:100EA000306800F00700B8420BD9306820F0070026
:100EB00038433060306800F00700B84201D00120AC
:100EC000E5E72878400705D56068E96820F4E06028
:100ED000084360602878000706D56068296920F417
:100EE000605040EAC100606000F038F86168084A6C
:100EF000C1F30311515CC840064908600648006808
:100F0000FFF7F8FE0020C2E7002002400010024078
:100F1000D83000080C0000200400002004480549D7
:100F200000684968044AC1F30221515CC840704717
:100F30000C00002000100240E83000080448054979
:100F400000684968044AC1F3C221515CC840704737
:100F50000C00002000100240E830000812A185B00B
:100F60000FC98DE80F0014A0144A0068049051685E
:100F7000134801F00C03042B10D0082B0ED1C1F341
:100F80008343C9031DF803000AD5516804AAC1F3BD
:100F90004041515C0A4A5043B0FBF1F005B0704744
:100FA00008494843FAE70000020304050607080958
:100FB0000A0B0C0D0E0F1010010200000010024071
:100FC00000127A0000093D002DE9F84F040070D0AE
:100FD0002078C04DC00749D06868C0F3810001285F
:100FE00007D06868C0F38100022809D16868C0038F
:100FF00006D52868800339D560680028E7D035E039
:101000006068B0F5803F0BD010B1B0F5A02F11D0C3
:10101000286820F480302860286820F4802002E0CE
:10102000286840F480302860606890B1FFF742FE85
:1010300006460AE0286840F480202860F0E700BFF8
:10104000FFF738FE801B642873D828688003F7D523
:101050000CE0FFF72FFE064605E000BFFFF72AFE73
:10106000801B6428F0D828688003F7D420789A4E33
:1010700080074FF001094FF0000839D5686810F07B
:101080000C0F07D06868C0F38100022809D1686896
:10109000C00306D42868800714D52069012808D128
:1010A00010E02069B0B1C6F80090FFF703FE0746D4
:1010B00005E00AE1FFF7FEFDC01B0228C4D828683E
:1010C0008007F7D52868616920F0F80040EAC10080
:1010D00028600DE0C6F80080FFF7ECFD074604E04D
:1010E000FFF7E8FDC01B022823D828688007F7D443
:1010F000207800072CD57948A169D9B1C0F80090B3
:10110000FFF7D8FD074604E0FFF7D4FDC01B022817
:101110000FD8686A8007F7D571484FF4FA51006814
:10112000B0FBF1F0009000BF0098411E0091FAD290
:101130000EE080E0C0F80080FFF7BCFD074604E049
:10114000FFF7B8FDC01B022875D8686A8007F7D47E
:101150002078400760D5E8690027C00008D4E86916
:1011600040F08050E861E869012700F0805000906D
:101170005C480168C90513D40168834641F4807155
:101180000160FFF797FD824606E000BFFFF792FD82
:10119000A0EB0A0064284ED8DBF80000C005F5D5A6
:1011A000E06801280AD008B1052813D0286A20F089
:1011B00001002862286A20F0040002E0286A40F05A
:1011C00001002862E06841F2883B98B1FFF772FDA8
:1011D00082460BE0286A40F004002862EEE700BF78
:1011E000FFF768FDA0EB0A0159455AD8286A800725
:1011F000F6D50CE0FFF75EFD824605E0FFF75AFDED
:10120000A0EB0A0159454CD8286A8007F6D41FB1D3
:10121000E86920F08050E861E06988B36968C1F34B
:101220008101022944D00228C6F8608004D0FFF76B
:1012300041FD044638E034E0FFF73CFD074604E09A
:10124000FFF738FDC01B02282BD828688001F7D48F
:10125000206AB0F5803F05D16868A16820F40030AD
:1012600008436860D4E908010843696821F47411EF
:1012700008436860C6F86090FFF71CFD044606E06E
:1012800025E000BFFFF716FD001B022809D82868DB
:101290008001F7D51BE000BFFFF70CFD001B022803
:1012A00002D90320BDE8F88F28688001F4D40EE04D
:1012B0000128F7D06868226A00F48031914204D195
:1012C000616A00F47010884201D00120EAE7002032
:1012D000E8E7000000100240000042428004424261
:1012E0000C0000200070004070B5040005D00025FF
:1012F000A56294F8510010B106E0012070BD84F899
:101300005050204600F02EF8022084F8510020684A
:10131000016821F040010160D4E901010843D4E9EA
:1013200003121143084361690843218B01F40071E2
:101330000843E1690843216A0843A16A0843216818
:101340000860A069042101EA104021684860206813
:10135000C16921F40061C1616565012084F8510013
:10136000002070BD70472DE9F84F04464068002505
:10137000984616460F464FF0040BB0F5827F01D118
:10138000A06888B194F85000012818D0012084F892
:101390005000FFF78FFC814694F851004FF0000A8F
:1013A00001280ED002257DE084F851B013460A468C
:1013B0002046CDF8008000F02CF9BDE8F88F02201F
:1013C000FBE7002F6DD0002E6BD084F851B0C4F82D
:1013D00054A0A763A687E687C4F830A0A4F834A079
:1013E000A4F836A0C4F840A0C4F844A0A068B0F5A2
:1013F000004F04D12068016821F480410160206819
:101400000168490603D4016841F040010160E068C9
:10141000D8B139E020688168C90709D0007BA16B89
:101420000870A06B401CA063E08F401EE0870CE0BA
:10143000FFF740FCA0EB0901414503D3B8F1FF3FA2
:1014400003D036E0B8F1000F33D0E08F0028E1D1AF
:101450001DE020688168C90709D0C068A16B0880B9
:10146000A06B801CA063E08F401EE0870CE0FFF7BC
:1014700021FCA0EB0901414503D3B8F1FF3F03D0A4
:1014800017E0B8F1000F14D0E08F0028E1D14A46F0
:101490004146204600F02EFD08B120206065606DB9
:1014A00000B10125012084F8510084F850A028469D
:1014B00083E70325F6E72DE9F84F044690F850003E
:1014C00000271D461646894601280DD04FF0010B16
:1014D00084F850B0FFF7EEFB804694F85100BA460E
:1014E000012804D002278EE00220BDE8F88FB9F170
:1014F000000F7DD0002E7BD0032084F85100C4F86B
:1015000054A0C4F83090A686E686C4F838A0A4F8A3
:101510003CA0A4F83EA0C4F844A0C4F840A0A06831
:10152000B0F5004F04D12068016841F480410160AA
:1015300020680168490603D4016841F04001016058
:10154000E068B0F5006F606803D030B3012E24D09E
:1015500040E008B1012E1CD1206B21680088C860D2
:1015600006E020688168890709D5216B0988C16078
:10157000206B801C2063E08E401EE08609E0FFF7B0
:1015800099FBA0EB0800A84202D3681C01D031E00F
:101590007DB3E08E0028E4D11FE0206B2168007845
:1015A000087306E020688168890709D5216B0978EE
:1015B0000173206B401C2063E08E401EE08609E032
:1015C000FFF778FBA0EB0800A84202D3681C01D00B
:1015D00010E075B1E08E0028E4D14246294620464D
:1015E00000F0B6FC08B120206065A06820B107E0DB
:1015F00008E0FFE7032706E02068C16880680090E4
:10160000606D00B1012784F851B084F850A03846CD
:101610006BE72DE9F84F044690F8500000270A9E2A
:101620001D4692468B464FF0010901280ED001203D
:1016300084F85000FFF73EFB804694F85100616843
:1016400001280CD0B1F5827F07D102E00220BDE86D
:10165000F88FA16809B9042801D00227C2E0BBF1C4
:10166000000F27D0BAF1000F24D01DB394F8510019
:10167000042802D0052084F8510000206065C4F8D9
:1016800038A0E587A587C4F830B0E586A586206434
:10169000606420680168490603D4016841F0400194
:1016A0000160E068B0F5006F606805D0E8B3012D17
:1016B00046D07FE0012795E008B1012D39D1206B9C
:1016C00021680088C860206B801C2063E08E401E6B
:1016D000E0862EE02068816889070FD5E18E69B128
:1016E000B9F1010F0AD1216B0988C160206B801C00
:1016F0002063E08E401EE0864FF00009206881687C
:10170000C9070CD0E18F51B1C068A16B0880A06BF4
:10171000801CA063E08F401EE0874FF00109FFF7B7
:10172000C9FAA0EB0800B04200E009E001D3701C48
:1017300050D1E08E0028CDD1E08F0028CAD13FE003
:10174000206B216800780873206B401C2063E08EBA
:10175000401EE0862EE02068816889070FD5E18E63
:1017600069B1B9F1010F0AD1216B09780173206BBE
:10177000401C2063E08E401EE0864FF00009206888
:101780008168C9070CD0E18F51B1C068A16B0870A6
:10179000A06B401CA063E08F401EE0874FF0010962
:1017A000FFF788FAA0EB0800B04202D3701C01D00A
:1017B00010E07EB1E08E0028CDD1E08F0028CAD1A4
:1017C00042463146204600F0C3FB28B101272020C5
:1017D000606507E0032705E0A06818B92068C168C4
:1017E00080680090012084F85100002084F85000A7
:1017F00038462CE710B5401EB0F1807F01D30120A0
:1018000010BD4FF0E02460610F21601700F0E6FE8C
:101810000020A06107202061002010BD10B5044603
:101820000068416994F83920C1F3C011212A0BD115
:1018300051B1416921F080014161206B08B1FEF78F
:10184000C1FF204600F0BEFC2068416994F83A20B0
:10185000C1F38011222A0BD151B1416921F040011D
:101860004161606B08B1FEF7ADFF204600F09CFCC3
:10187000002010BD7047000070B502680446106873
:10188000D168536910F00F0F50D003F0010501F437
:10189000907635435DD0C20705D0CA0503D5E26B0B
:1018A00042F00102E263420705D5DA0703D0E26B9A
:1018B00042F00202E263820705D5DA0703D0E26B49
:1018C00042F00402E263020705D5DA0703D0E26BB7
:1018D00042F00802E263E26B002A33D0800604D5AE
:1018E000880602D5204600F076FC20684069E16B4E
:1018F000C0F38010090700D428B3204600F054FC40
:101900002068416949061AD5416921F040014161C9
:10191000606BA0B11B494163606BFEF777FF002845
:1019200010D0606B416BBDE870400847830610D54E
:101930008B060ED52046BDE8704000F04CBC20461A
:10194000FFF798FF70BD2046FFF794FF0020E0638B
:1019500070BD030606D50B0604D52046BDE87040D1
:1019600000F0E0BC4006F3D54806F1D5D16820462A
:1019700021F04001D160202184F8391000F022F9D3
:1019800070BD0000D120000870B5040004D094F8A8
:101990003900002510B106E0012070BD84F83850F0
:1019A000204600F022F8242084F839002068C1681D
:1019B00021F40051C160204600F058FC2068016904
:1019C00021F4904101612068416921F02A014161BF
:1019D0002068C16841F40051C160E563202084F8AB
:1019E000390084F83A00002070BD7047F8B504460D
:1019F00090F83A0020283CD1C1B3BAB394F838002B
:101A0000012836D0012084F83800A162A285002583
:101A1000E563222084F83A00636B17489862636B91
:101A20001648D862636B16481863606B13464563AB
:101A30000846666B216802463046091DFFF70AF822
:101A4000206801684168009184F83850C16841F409
:101A50008071C1602068416941F0010141612068E5
:101A6000416941F0400141610020F8BDFFE70120DC
:101A7000FBE70220F9E700002B210008672100089E
:101A8000E1200008704770472DE9F843044690F8BC
:101A900039001F4616460D46202850D1A5B19EB1EB
:101AA00094F8380001284AD0012084F838004FF01B
:101AB0000008C4F83C80212084F83900FFF7FAF8C8
:101AC000A6848146E68426E00120BDE8F883E08C08
:101AD000401EE084A0684B46B0F5805F4FF00002E6
:101AE0004FF080012046009703D000F04CFCE8B98D
:101AF0000DE000F048FCC8B928882168C0F3080050
:101B00004860206908B16D1C05E0AD1C03E0216848
:101B100015F8010B4860E08C0028D8D14B46002214
:101B200040212046009700F02EFC08B10320CCE7AE
:101B3000202084F8390084F838800020C5E702208E
:101B4000C3E7000070B5044690F83900202830D172
:101B500069B362B394F8380001282AD0012084F8D0
:101B600038002162A284E2840025E563212084F804
:101B70003900236B10489862236B1048D862236B9E
:101B80000F481863206B134645632668206B321D8F
:101B9000FEF760FF21686FF04000086084F838505D
:101BA0002068416941F080014161002070BD012041
:101BB00070BD022070BD0000712100089F21000847
:101BC000E120000870477047FEE70000084808B5AC
:101BD000816941F0080181618069064900F00800CF
:101BE00000900548FEF780FFBDE8084000F006B809
:101BF0000010024018000020000C01400122910258
:101C00000148FFF751B80000000C014000224FF4DA
:101C100080610148FFF748B8000C01400548017891
:101C200019B100210170FFF7E9BF01210170FFF731
:101C3000EDBF0000140000202DE9FE430027904670
:101C40000D460646009701970297FEF789FD2B4C3B
:101C5000D0B36A460921A42000F020F99DF80000C5
:101C60009DF80110000440EA01209DF8021008438D
:101C70004FF400012060884202DB40F07F4020608A
:101C80009DF803009DF80420000440EA02209DF81E
:101C9000052010436060884202DB40F07F406060B6
:101CA0009DF806009DF80720000440EA02209DF8F8
:101CB00008201043A060884202DB40F07F40A06013
:101CC00070208DF8000008E0FFE70D480178491DFD
:101CD000C9B20170142904D307707021002000F0EC
:101CE000F5F8208840422880A08840423080208932
:101CF0004042A8F80000BDE8FE830000E00100209B
:101D000028000020FEE7FEE7704708B500208DF8A8
:101D10000000FEF7F7FC7021002000F0D7F80A2041
:101D2000FEF7D0FE6A460121B62000F0B7F89DF814
:101D30000000222801D0012008BD002008BD0000BD
:101D400070B5FEF7DFFCFFF7E0FF08B1012070BDC2
:101D500011A004688588E1B2042000F0B7F8C4F34C
:101D60000721052000F0B2F8C4F30741062000F077
:101D7000ADF8210E072000F0A9F8E9B2082000F024
:101D8000A5F8C5F30721092000F0A0F87021002074
:101D900000F09CF8002070BD00C800C800C800001A
:101DA0000EB50020ADF80000ADF80400ADF8080055
:101DB00002AA01A96846FFF73FFFBDF90830BDF947
:101DC0000420BDF9001003A000F0D2FB6420FEF750
:101DD00079FE0EBD524D333130302068783A2025DF
:101DE000642C2068793A2025642C20687A3A2025D2
:101DF000640D0A002DE9F041244886B0816941F460
:101E000080518161816901F480510491816941F0BF
:101E1000040181618069202500F0040003270095FA
:101E2000CDE9037000240226DFF86480CDE9016467
:101E300069464046FEF758FE4020CDE90004694659
:101E400040460294FEF750FE8020CDE900060120B6
:101E5000CDE9020769464046FEF746FE0E480D49A9
:101E600001604FF48271C0E90114C460290104616A
:101E7000C0E90541C0E907540A214462C0E90A41AA
:101E8000FFF732FA06B0BDE8F08100000010024012
:101E900000080140003001407801002037B51546A8
:101EA0000C46FEF755FC0A23012269460648FFF757
:101EB00002FB04EB84004300224629460248FFF758
:101EC00052FAFEF717FC3EBD7801002013B5FEF76D
:101ED0003FFC0A23012269460548FFF7ECFA0A2372
:101EE000012201A90248FFF7E6FAFEF703FC1CBD38
:101EF00078010020F8B5044640684FF48273984298
:101F000017D1A0684FF48065B0F5004F01D0A8420A
:101F10000FD12068066826F0400606606068984287
:101F200007D1A068A84204D100920B4600220121EB
:101F300003E000920B4600228021204600F018F8B2
:101F4000002804D0606D40F0200060650320F8BDDB
:101F500038B50B46009204460022802100F008F8B4
:101F6000002804D0606D40F020006065032038BD7B
:101F70002DE9F0411D4617460E460446DDF818804F
:101F800008E0681C06D0FEF795FEA0EB0800A8420A
:101F90000BD255B12068806836EA000030D00020AE
:101FA000B842EED10020BDE8F0812068416821F000
:101FB000E00141606068B0F5827F0BD1A068B0F5A8
:101FC000004F02D0B0F5806F04D12068016821F085
:101FD00040010160A06AB0F5005F09D12068016886
:101FE00021F4005101602068016841F40051016052
:101FF000012084F85100002084F850000320D2E72B
:102000000120CDE77047FEF75BBE10B5FEF760FE1E
:1020100000F00AF8FFF7DAFD4FF4E13000F014FAAF
:10202000BDE81040FFF7E6BE30B58FB02821684606
:10203000FEF7A1F814210AA8FEF79DF80121080473
:10204000CDE900100024029402250491CDE9075047
:102050004FF4E01009906846FEF7B6FF08B172B67B
:10206000FEE70F20CDE90A054FF48060CDE90C4072
:1020700002210AA80E94FEF7BBFE002801D072B61A
:10208000FEE70FB030BD00000D48016841F00101CE
:10209000016041680B4A1140416001680A4A1140E1
:1020A0000160016821F480210160416821F4FE0192
:1020B00041604FF41F0181600449C003086070470C
:1020C000001002400000FFF8FFFFF6FE08ED00E000
:1020D00010B5406A0021C185C184FFF7CBFB10BD5C
:1020E00070B5446A2068406994F83910C0F3C01094
:1020F0000025212904D118B1E584204600F062F8BA
:102100002068406994F83A10C0F38010222904D165
:1021100018B1E585204600F047F8E06B40F010006C
:10212000E0632046FFF7A6FB70BD10B50146406A8C
:1021300009680968890613D40021C1850168CA6845
:1021400022F48072CA6001684A6922F001024A6181
:1021500001684A6922F040024A61202180F83A1061
:10216000FFF790FC10BD10B5406AFFF78CFC10BD66
:1021700010B50146406A0968096889060CD4002137
:10218000C18401684A6922F080024A610068C1681E
:1021900041F04001C16010BDFFF714FD10BD10B546
:1021A000406AFFF710FD10BD0168CA6822F4907202
:1021B000CA6001684A6922F001024A61202180F860
:1021C0003A1070470168CA6822F0C002CA60202134
:1021D00080F83910704710B590F83A10222901D0D4
:1021E000022010BD8168B1F5805F11D0016900291E
:1021F00001681FD0496801F07F03816A4A1C82622E
:102200000B70C18D491E0904090CC18518D02BE043
:102210000269816A002A0268526805D0D2B20A8037
:10222000816A491C8162ECE7C2F308020A80816A74
:10223000891CF7E74A68816A4B1C83620A70E0E7F1
:102240000168CA6822F02002CA600168CA6822F4E4
:102250008072CA6001684A6922F001024A61202145
:1022600080F83A10FFF70EFC002010BD2DE9F04178
:10227000044600680169E26821F44051114301619C
:102280002169A0680843616908432168CA6841F26E
:102290000C639A430243CA6020684169A26921F431
:1022A0004071114341611E492068642532268842ED
:1022B00002D1FEF743FE01E0FEF730FE00EBC00165
:1022C00001EB001160686FF018078000B1FBF0F2BD
:1022D000B2FBF5F2B1FBF0F37A4303EB8202B1FB00
:1022E000F0F306EB0212B2FBF5F2B3FBF5F302F0EA
:1022F000F00202EB0312B1FBF0F3B1FBF0F0B0FB24
:10230000F5F0784303EB800006EB0010B0FBF5F02E
:10231000216800F00F0010448860BDE8F0810000E3
:102320000038014090F83910212901D0022070476F
:102330008168B1F5805F016A0BD04A1C02620268B5
:1023400009785160C18C491E0904090CC1840ED062
:1023500017E009880268C1F308015160016900298A
:10236000016A02D0491C0162ECE7891CFBE70168A5
:10237000CA6822F08002CA600068C16841F040016A
:10238000C160002070472DE9F041984617460E467F
:102390000446069D1DE0681C1BD02DB1FEF78AFC8B
:1023A000A0EB0800A84214D92068C16821F4D071BC
:1023B000C1602068416921F001014161202084F859
:1023C000390084F83A00002084F838000320BDE882
:1023D000F0812068006836EA000004D00020B8428E
:1023E000D9D00020F3E70120F9E7000038B5124802
:1023F00000680168C943C90618D40168002540680F
:1024000000900D48FFF70AFA0C48006840680C4C31
:102410000090C0F18000206080220A490648FFF742
:10242000E5FA08482168455400F056FDBDE83840FB
:102430000148FFF721BA0000B0000020F0000020A2
:102440001000002030000020F0B5434E074685B054
:10245000B06940F48040B061B06900F480400490FD
:10246000B06940F00400B061B069002400F00400DD
:102470000490701500900220CDE901040320374D2F
:10248000039069462846FEF72FFB2815CDE9000486
:10249000694628460294FEF727FB324D30482860F3
:1024A000C5E901740C20EC60C5E90440AC61284624
:1024B000EC61FFF769FA2868C16841F01001C1605A
:1024C000706940F0010070617069002200F0010045
:1024D000049011460E20FEF759FC0E20FEF748FC32
:1024E000002211460F20FEF751FC0F20FEF740FCA2
:1024F00005F140061C48C6E900048027C6E90247EA
:1025000020203461C6E905403046F461FEF774FAD4
:102510006E63154875624436143801C6102091C6A2
:1025200005F1840046F810497461B461F461FEF766
:1025300063FA2E630022114625207562FEF726FC01
:102540002520FEF715FC8022A5F180012846FFF723
:102550004DFA05B0F0BD0000001002400008014037
:1025600000380140B000002058000240FEE70000A3
:102570000FB4054B10B503A9044A029800F010F9F6
:1025800010BC5DF814FB0000513000082C00002046
:102590000FB4084B10B504A902AA039800F000F983
:1025A000044602A9002000F092FC204610BC5DF811
:1025B00014FB0000CF2E000837B514460846064B22
:1025C0006A46214600F0ECF804466946002000F017
:1025D0007EFC20463EBD0000CF2E00080907090EF4
:1025E000002804DB00F1E02080F80014704700F0C0
:1025F0000F0000F1E02080F8141D704702E008C8C9
:10260000121F08C1002AFAD170477047002001E06C
:1026100001C1121F002AFBD1704700002DE9FF5FA6
:1026200082B00021DDE90430020DDDF840B0034343
:1026300018D044F61050A2F2FF32424315141198FC
:1026400001281FD0A5EB0B00401C5FEA000A4FF0E9
:1026500000064E4FDFF83891B046504615D5CAF106
:10266000000413E0119801244AA3012801D16FEA64
:102670000B010298119AC0E90031C0E9024206B08C
:10268000BDE8F09FCBF10000DFE704460021404A9F
:10269000491842EB0450CDE9001012E0E00707D0E2
:1026A00032463B4640464946FDF780FE8046894615
:1026B00032463B4610461946FDF778FE06460F4661
:1026C0006410002CEAD1DDE90401DDE90023BAF150
:1026D000000F06DAFDF76AFE42464B46FDF766FE3E
:1026E00005E0FDF7D5FE42464B46FDF7D1FE044618
:1026F0000E460022284BFDF753FF03D84FF0FF3062
:10270000014607E00022254B20463146FDF7A7FD94
:10271000FDF72DFF102409E0002C0ADB0A2200231C
:10272000FDF76CFD039B30321A55641E50EA01021E
:10273000F2D1641C039AC4F111031444119A012AC2
:1027400003D0012208430DD10AE0084304D0002041
:102750004FF0110B119072E7A3EB0B056D1E0DE00E
:102760005B4504DD4FF0000205F1010504E003DAEA
:102770004FF00002A5F10105002AECD00298119952
:10278000C0E90231C0E9004579E7000000001440CB
:102790000000F03F300000000000F0430000E03F88
:1027A0002DE9FF4F95B09B468946064600250FE26E
:1027B000252877D100242746F84A0121059400E016
:1027C000044316F8013F203B01FA03F01042F7D111
:1027D00030782A2811D06FF02F033078A0F1300222
:1027E000092A16D8059A44F0020402EB820203EB90
:1027F00042021044761C0590EFE759F8042B05922D
:10280000002A03DA504244F40054059044F00204D4
:10281000761C30782E2816D116F8010F44F00404E7
:102820002A280DD06FF02F023078A0F13003092B49
:1028300009D807EB870302EB4303C718761CF3E7BD
:1028400059F8047B761C30786C280FD006DC4C28B5
:1028500017D068280DD06A2814D104E0742810D04D
:102860007A280FD10DE044F400140AE044F48014F7
:1028700001E044F440147278824202D104F58014DD
:10288000761C761C307866280BD013DC582877D05D
:1028900009DC002875D04528F6D04628F4D0472812
:1028A0001AD19DE118E0632835D0642879D06528D5
:1028B00012D195E1702873D008DC6728F1D069281F
:1028C0006FD06E280DD06F2806D1B5E073282CD0BC
:1028D000752875D0782874D05A46179990476D1C82
:1028E00075E1C4F30250022809D003280DD0D9F8AD
:1028F000001004280DD00D6009F1040967E1D9F832
:102900000010EA17C1E90052F6E7D9F800100D806F
:10291000F2E70D70F0E719F8041B8DF800100020A5
:102920008DF80100EA46012003E059F804AB4FF0AE
:10293000FF3061074FF0000102D40DE008F1010102
:102940008846B9420FDA8045F8DB1AF808100029EA
:10295000F4D108E008F1010188468142FADB1AF857
:1029600008100029F6D105985B46A0EB0807214620
:102970003846179A00F094FA284400EB080507E05F
:102980004DE029E10DE01AF8010B5A4617999047DE
:10299000B8F10108F7D25B4621463846179A13E191
:1029A00042E00A220092C4F302524FF0000A022AC7
:1029B00008D059F804CB032A4FEAEC710AD00DE095
:1029C00029E02AE009F1070121F00702F2E802C13B
:1029D000914609E00FFA8CFC4FEAEC71042A03D10E
:1029E0004FFA8CFC4FEAEC71002907DA0A46002105
:1029F000DCF1000C61EB02012D2202E0220504D57E
:102A00002B228DF80420012203E0E20701D02022CE
:102A1000F7E7904659E00A2102E010220DE010216C
:102A20004FF0000A00910BE010224FF0000A44F032
:102A300004040827009203E008224FF0000A0092E5
:102A4000C4F30252022A05D059F804CB0021032A0C
:102A500008D009E009F1070121F00702F2E802C1FC
:102A6000914605E01FFA8CFC042A01D10CF0FF0C02
:102A70004FF00008220728D5702806D0009B83F06D
:102A8000100353EA0A0305D00EE040228DF804201B
:102A9000012208E05CEA010206D030228DF8042011
:102AA0008DF8050002229046009B83F0080353EA4C
:102AB0000A030AD15CEA010201D1620705D530227E
:102AC0008DF804204FF001087F1E582804D034A050
:102AD00003900EA802900DE036A0F9E75346604639
:102AE000009AFDF78BFB84460398825C0298401E97
:102AF000029002705CEA0100F0D1029806A9081A5F
:102B000000F1200A600702D524F4803400E0012798
:102B1000574502DDA7EB0A0000E0002000EB0A01A8
:102B2000009005984144401A0590E00306D45B46A6
:102B30002146179A059800F0B3F90544002706E0EE
:102B400001A85A46C05D179990476D1C7F1C4745E8
:102B5000F6DBE0030CD55B462146179A059800F09A
:102B60009FF9054404E030205A46179990476D1CA0
:102B70000099481E00900029F5DC08E002980299AF
:102B80005A460078491C0291179990476D1CBAF17A
:102B90000001AAF1010AF1DC65E100000928010049
:102BA00030313233343536373839616263646566C3
:102BB0000000000030313233343536373839414285
:102BC000434445460000000000F058F90544761CD7
:102BD000307800287FF4ECAD19B02846BDE8F08FBE
:102BE000620700D4062709F1070222F0070CFCE86F
:102BF0000223E14603F000485FEA080C02D00FF21E
:102C0000702C0DE05FEA045C02D50FF2682C07E03F
:102C10005FEAC47C02D00FF2602C01E0AFF2700CCE
:102C20004FF0FF3823F00043CDF850C065280CD09A
:102C300006DC452809D046281DD047283DD13DE077
:102C4000662818D067287ED138E00021112F01DBDB
:102C5000112000E0781CCDE9000106A90EA8FFF7BD
:102C6000DDFCDDE90F010E9A03910021009207F1CE
:102C7000010A04914DE04FF000400097CDE90110AA
:102C800006A90EA8FFF7CAFCDDE90F0203920E9B0E
:102C900011990022DDF80CA00093049211B9791C5F
:102CA00000EB010AB7EB0A0004D4C0F1FF3007F1D2
:102CB000010A0490AAEB0700019044E0012F00DA1A
:102CC00001270021112F01DD112000E03846CDE958
:102CD000000106A90EA8FFF7A1FCDDE90F010E9A7D
:102CE0000391002104910092BA4621070CD4039964
:102CF000514500DA8A46BAF1010F05DD009AAAF1C2
:102D00000101515C302908D0B84202DA10F1040FF9
:102D100006DA0121CDE9011015E0AAF10101E9E788
:102D2000002805DC049901440491AAEB000102E0AB
:102D3000411C514500DD8A460499401A401C01900F
:102D40004FF000400290200704D40198504501DB69
:102D5000CDF8048000208DF84F0002980DF14F0748
:102D6000B0F1004F25D02B200E9002984FF00208B2
:102D700000280CDA404202902D200E9007E00A2134
:102D80000298FDF725FA3031029007F8011DB8F1DD
:102D90000001A8F10108F2DC02980028EFD1791EA9
:102DA0000E980870307800F0200040F0450007F8D9
:102DB000020D12A8C01B00F107081498007800B19A
:102DC000012000EB0A01019801EBE07105984144F4
:102DD000401A401E0590E00306D45B462146179A30
:102DE000059800F05DF805441498007818B15A462B
:102DF000179990476D1CE00324D55B462146179A2E
:102E0000059800F04DF805441CE00498002807DB05
:102E1000DDE90301884203DD0098405C179901E079
:102E2000179930205A469047049805F10105401C37
:102E300004900198401E019004D12E205A46179903
:102E400090476D1CBAF10001AAF1010ADDDC05E032
:102E500017F8010B5A46179990476D1CB8F10001FD
:102E6000A8F10108F4DC5B462146179A0598ABE609
:102E70002D0000002B000000200000002DE9F04193
:102E8000044600251E461746880404D405E039464A
:102E90002020B0476D1C641EF9D52846BDE8F0819E
:102EA0002DE9F041044600251E469046C80301D591
:102EB000302700E02027880404D505E04146384645
:102EC000B0476D1C641EF9D52846BDE8F0810A683C
:102ED000531C0B60107070472DE9FF47814620A1FD
:102EE000FDF75BF9204E10F0FF0F4FF000054FF497
:102EF00080382DD0681E03AFCDE902700124002375
:102F000022461AA14846CDE9004500F053F838B1F1
:102F10008DE8B0004346012217A1484600F04AF868
:102F2000039C4FF6FF72210C0904A0B212D0414558
:102F300004D1904202D113A000F0B8F8601C0DD06B
:102F4000B44203D113A000BF00F0B0F8BDE8FF8782
:102F50000396E5E79042F1D110A0EDE712A0F3E768
:102F600041540D0A000000000000FFFF41542B53A4
:102F7000454E534F523D000041542B564552534944
:102F80004F4E3D00524D333130302056312E300DF2
:102F90000A0000004F4B210D0A000000524D333152
:102FA00030300D0A000000004552524F52210D0AE8
:102FB000000000002DE9F04F89B08046DDE913766E
:102FC0001D46924689460846DDF848B0FDF7DEF812
:102FD000C4B2224641466846FDF7B4F82246494647
:102FE0006846FDF7E8F810F0FF0F20D1A044BAF1D1
:102FF000000F08D013A16846FFF7CAFA6946404699
:10300000FDF7CBF808B15C460FE04FF6FF700543C3
:10301000356015E022460CA16846FFF7B9FA69460B
:103020004046FDF7BAF848B1641CBC42F2D94FF0F3
:10303000FF303060012009B0BDE8F08F2819306002
:103040000020F8E73F0D0A0025640D0A000000008B
:1030500013B54FF47A73012269460248FEF714FD56
:1030600000981CBDB0000020FEF7CFFF5FF0000409
:10307000FEF74BFE48B1002407A0FFF779FA642061
:10308000FDF720FDFEF7CAFDF2E714B90124FEF7B3
:1030900057FEFEF785FEF2E76E6F2066696E6420CC
:1030A000524D33313030210D0A0000000FB400B50D
:1030B000C1B043AA68464299FFF77EFA6846FDF719
:1030C00065F882B269460348FEF73CFD41B05DF801
:1030D00014FB0000B0000020000000000000000011
:1030E00001020304060708090000000001020304AE
:1030F000103100080000002030000000FC2500080E
:103100004031000830000020C00500000C260008F7
:103110000100000010000000000000000024F40086
:10312000000000000000000000040000010000009A
:10313000000000000300000000000000000000008C
:04000005080000ED02
:00000001FF
