:020000040800F2
:10000000800A002001010008DF1600089D16000884
:10001000DD16000857070008451C00080000000016
:10002000000000000000000000000000E3160008CF
:100030009B07000800000000E1160008E516000814
:100040001B0100081B0100081B0100081B01000820
:100050001B0100081B0100081B0100081B01000810
:100060001B0100081B0100081B0100081B01000800
:100070001B0100081B01000859070008650700085C
:100080001B0100081B0100081B0100081B010008E0
:100090001B0100081B0100081B0100081B010008D0
:1000A0001B0100081B0100081B0100081B010008C0
:1000B0001B0100081B010008000000001B010008D4
:1000C0001B01000800000000000000001B010008E8
:1000D00000000000C51A00081B0100080000000015
:1000E0001B0100081B0100081B010008DFF80CD0F1
:1000F00000F076FA00480047ED500008800A002022
:100100000648804706480047FEE7FEE7FEE7FEE7B1
:10011000FEE7FEE7FEE7FEE7FEE7FEE76117000801
:10012000ED000008202A04DB203A21FA02F0002129
:10013000704721FA02F3D040C2F1200291400843F7
:100140001946704740EA01039B0703D009E008C93C
:10015000121F08C0042AFAD203E011F8013B00F88C
:10016000013B521EF9D27047D2B201E000F8012BD8
:10017000491EFBD270470022F6E710B513460A4627
:1001800004461946FFF7F0FF204610BD421C10F848
:10019000011B0029FBD1801A704710B5002200E036
:1001A000521C835C8C5CA34201D1002BF8D1D8B2E5
:1001B000E1B2401A10BD30B504460020034600E00D
:1001C0005B1C934203D2E05CCD5C401BF8D030BD99
:1001D000034611F8012B00F8012B002AF9D118462B
:1001E000704730B50B46014600202022012409E06B
:1001F00021FA02F59D4205D303FA02F5491B04FAE0
:1002000002F52844151EA2F10102F1DC30BD2DE9F2
:10021000F05F0546002092469B468846064681468A
:1002200040241BE02846414647462246FFF77AFF16
:1002300053465A46C01A914110D3114618462246D9
:1002400000F0E0F92D1A67EB01084F462246012025
:10025000002100F0D7F917EB00094E41201EA4F150
:100260000104DFDC484631462A464346BDE8F09F9C
:100270002DE9FE4F804681EA0300C00F0C46009036
:1002800021F0004123F00045B8EB0200A94105D25E
:100290004046214690461C460B46024623F000404D
:1002A000104347D0270DC7F30A00C3F30A51029049
:1002B000401A019040286BDAC3F3130040F4801B0E
:1002C0000098924620B10023D2EB030A63EB0B0B9C
:1002D00001985946C0F14002504600F093F9064695
:1002E0000D4650465946019A00F09BF910EB080064
:1002F0006141002487EA115284EAE7731A4340D02F
:10030000009A62B3019A012A4FEA075215DC001BDA
:1003100061EB02014FF0004202EA0752CDE90042D0
:10032000001C41F5801132462B4600F09BF903B0CA
:10033000BDE8F08F40462146F9E7001B61EB020162
:10034000001C41F5801300185B412018A2F500172E
:1003500047EB030140EAD570B6196D4111E06D0815
:100360004FEA360645EAC0754FEA0752001B61EBBB
:100370000201001C41F5801149084FEA30000019C4
:10038000514132462B4603B0BDE8F04F00F05BB957
:100390000098012240000023D0EB020263EBE073DF
:1003A000009821464FEAE074B8EB000061EB0401CD
:1003B000E9E783F000435BE781F0004158E72DE96E
:1003C000FE4F81EA030404F0004421F00041009450
:1003D0004FF0000B23F0004350EA01045ED052EAD4
:1003E00003045BD0C3F30A54C1F30A552C44A4F2AE
:1003F000F3340194A0FB0254C1F3130141F48011C2
:10040000C3F3130343F4801301FB024400FB034EC8
:10041000840A970A44EA815447EA8357A4FB076891
:1004200002958D0A05FB07854FEA932C04FB0C54BB
:100430002705029D4FEA065847EA1637B5EB08052F
:100440006EEB070C870E920E47EA811742EA831281
:10045000A7FB0201B6EB0B0164EB00042B0D43EA92
:100460000C335E1844EB1C50DA465146E7FB0201A0
:10047000C5F313044FEA0B3343EA14534FEA043233
:10048000019C43EA0603A4F10C040294009CCDE90C
:1004900000B400F0E7F803B0BDE8F08F002001469B
:1004A000F9E72DE9F04D81EA030404F0004B21F057
:1004B000004514464FF0000A23F0004150EA0502BF
:1004C00020D054EA01021DD0C5F30A570246C5F3F5
:1004D0001303C1F31300C1F30A5640F4801543F42B
:1004E0008013A7EB0608101BD64608F2FD3873EB05
:1004F000050002D308F1010801E092185B41B8F150
:10050000000F03DA00200146BDE8F08D00204FF413
:100510008011064684460EE0171B73EB050705D3D2
:10052000121B63EB050306434CEA010C49084FEA32
:10053000300092185B4150EA0107EDD152EA030006
:1005400012D082EA040083EA0501084305D0101B9B
:10055000AB4106D20122002306E000224FF0004307
:1005600002E06FF0010253101AEB06004CEB085149
:1005700010EB0A0041EB0B01BDE8F04D00F063B851
:10058000C1F30A52C1F3130140F2FF3341F4801169
:100590009A4202DA00200146704740F233439A4201
:1005A000A2F2334202DC5242FFF7BCBD00F02AB88F
:1005B00030B5041E71F1000404DB4FF000444042EA
:1005C00064EB0101141E73F1000405DB1C464FF0BF
:1005D0000043524263EB0403994208BF904230BD8E
:1005E000064C074D06E0E06840F0010394E8070080
:1005F00098471034AC42F6D3FFF77CFDE85400086E
:1006000008550008202A04DB203A00FA02F10020F5
:1006100070479140C2F1200320FA03F31943904040
:100620007047202A06DBCB17203A41FA02F043EA52
:10063000E07306E041FA02F3D040C2F1200291409B
:1006400008431946704710B5141E73F1000408DA08
:10065000401C41F1000192185B411A4301D120F086
:10066000010010BD2DE9F04D92469B4611B1B1FA43
:1006700081F202E0B0FA80F220329046FFF7C2FF2A
:1006800004460F4640EA0A0041EA0B0153465A4627
:10069000084313D0114653EA010019D0C8F14002B3
:1006A0005046FFF73FFD05460E4650465946424626
:1006B000FFF7A8FF084305D0012004E02046394693
:1006C000BDE8F08D0020054346EAE0762C43374331
:1006D0000A986305E40AA0EB08000022FD0A44EA38
:1006E00047540A3002D500200146E9E701051019F8
:1006F0006941DDE9084500196941BDE8F04DA2E70F
:1007000070B58C1810F8015B15F0070301D110F8D3
:10071000013B2A1106D110F8012B03E010F8016B00
:1007200001F8016B5B1EF9D12B0705D40023521E83
:100730000DD401F8013BFAE710F8013BCB1A921CEB
:1007400003E013F8015B01F8015B521EF9D5A142E9
:10075000D8D3002070BDFEE7014800F08FB800003C
:1007600058040020014800F089B80000140400205B
:1007700030B590F840500124AC40C56B6C60046803
:1007800063604368102B036803D099600068C260FF
:1007900030BD9A600068C16030BD704710B590F8F8
:1007A00021100022022905D00421816380F8202035
:1007B000012010BD01680B6823F00E030B60016877
:1007C0000B6823F001030B6090F84030C46B0121EB
:1007D00001FA03F3636080F8211080F820201046AE
:1007E00010BD000010B590F821100024022903D09C
:1007F0000421816301243DE001680A6822F00E02B1
:100800000A6001680A6822F001020A601A4A016857
:10081000914201D1012121E0174A1432914201D1C4
:1008200010211BE0144A2832914201D1891515E0AC
:10083000114A3C32914201D189140FE00E4A5032E4
:10084000914202D14FF4803108E00B4A6432914268
:1008500002D14FF4801101E04FF08071064A083A4E
:100860005160012180F82110002180F82010416B97
:1008700001B18847204610BD080002402DE9F05F15
:10088000C16B0C6801680B68D0F840C0042202FA02
:100890000CF2494DDFF824A1494E4A4FDFF828B148
:1008A000DFF828E122422CD05A072AD50A6892069E
:1008B00003D40A6822F004020A600168A94201D147
:1008C000042219E0514501D1402215E0B14202D184
:1008D0004FF4806210E0B94202D14FF480420BE045
:1008E000594502D14FF4802206E0714502D14FF400
:1008F000800201E04FF080622F4908394A60C16AE6
:100900003BE04FF0020808FA0CF818EA040F4FF029
:1009100000094FF0010235D05FEA837832D50B68C9
:100920009B0605D40B6823F00A030B6080F8212096
:100930000168A94201D1022219E0514501D12022CA
:1009400015E0B14202D14FF4007210E0B94202D179
:100950004FF400520BE0594502D14FF4003206E04B
:10096000714502D14FF4001201E04FF000721249BC
:1009700008394A6080F82090816A00291AD0BDE8C1
:10098000F05F0847082505FA0CF5254212D01B0731
:1009900010D50B6823F00E030B6090F84010C36B6A
:1009A00002FA01F15960826380F8212080F82090DA
:1009B000016BE2E7BDE8F09F080002401C00024026
:1009C0003000024044000240580002406C000240E7
:1009D00030B528B308C8134914221944B1FBF2F109
:1009E0008900C16310498163022141771A6843F687
:1009F000F0718A43D0E900142143D0E902452C4329
:100A000021430469214344692143846921431143FB
:100A1000196000214163012242770177084630BD09
:100A2000012030BDF8FFFDBF0000024070B5044654
:100A300090F82000002501280CD0012084F8200027
:100A400094F821600020012E06D084F820000225B1
:100A5000284670BD022070BD022684F82160A06384
:100A60002068066826F0010606602046FFF780FE33
:100A7000E06A00282068016802D041F00E0106E01B
:100A800021F0040101602068016841F00A01016061
:100A90002068016841F001010160D9E770B50446A2
:100AA00000F0F8F80546601C02D0044800780444C1
:100AB00000F0F0F8401BA042FAD370BD0000002007
:100AC0002DE9F84FDFF89C91002409F1040A0AF19E
:100AD000040B23460F270BF1040EBBE00125A540B4
:100AE0002A40AA4276D1DFF880C14E68A6EB0C08F6
:100AF00066452BD00DDC032E34D005DC36B3012E39
:100B000019D0022E2FD11BE0112E16D0122E2AD171
:100B100019E0B8F5881F19D006DCB8F5803F15D06C
:100B2000B8F5801F1FD111E0B8F5001F0ED0B8F541
:100B3000041F18D10AE0CB6815E0CB681B1D12E03A
:100B4000CB6808330FE0CB680C330CE08B682BB11B
:100B5000012B4FF0080303D0456104E0042302E0B9
:100B6000056100E00023FF2A01D8064601E000F1FC
:100B700004064FEA840501D9A5F12005D6F80080C6
:100B800007FA05FC28EA0C0803FA05F548EA050807
:100B9000C6F800804D68ED005BD5344DAE6946F077
:100BA0000106AE61AD6924F0030605F0010500956C
:100BB0002F4D06EB050CDCF80850A607360F07FA98
:100BC00006F825EA0805DFF8AC80404503D14FF070
:100BD000000810E03DE0DFF8A080404502D14FF072
:100BE000010808E0DFF89480404502D14FF0020888
:100BF00001E04FF0030808FA06F848EA0508CCF8C7
:100C000008804D68D9F80060ED034D4601D51643C4
:100C100000E096432E604D68DAF80060AD0355465B
:100C200001D5164300E096432E604D68DBF8006066
:100C3000ED025D4601D5164300E096432E604D68F7
:100C4000DEF80060AD02754601D5164300E096431C
:100C50002E60641C0A6832FA04F57FF43FAFBDE8E9
:100C6000F88F000000040140000011100010024045
:100C70000000014000080140000C0140001001404C
:100C80008068084000D0012070470AB101617047B8
:100C90000904FBE70148806870470000000000205D
:100CA000024881680278114481607047000000208A
:100CB000074810B5016841F010010160032000F001
:100CC00075F8002000F006F800F024F8002010BDB0
:100CD0000020024070B50D4D04464FF47A7128781B
:100CE000B1FBF0F00A490968B1FBF0F000F0ECFA52
:100CF00048B9102C07D200222146501E00F036F8C9
:100D000000206C6070BD012070BD0000000000205C
:100D10000C0000200C4808B5816941F00101816197
:100D2000816901F001010091C16941F08051C16107
:100D3000C06900F0805000900448416821F0E061F3
:100D400041F08071416008BD001002400000014088
:100D5000002809DB00F01F020121914040098000BA
:100D600000F1E020C0F8001170470000F0B40E4B15
:100D70001B680C46C3F30223C3F10705042D00D9F9
:100D80000425191D072901D2002300E0DB1E0126DE
:100D900006FA05F1491E214099409E40761E1640F4
:100DA0003143F0BC03F02EBB0CED00E0064900F02F
:100DB000070208684FF6FF03184040EA0220034A82
:100DC00010430860704700000CED00E00000FA05D9
:100DD0002DE9F0470F46050061D0434E306800F022
:100DE0000700B84209D2306820F00700384330606D
:100DF000306800F00700B84251D128683B4C8107A9
:100E000012D5400703D5606840F4E0606060287840
:100E1000000703D5606840F4605060606068A968AE
:100E200020F0F000084360602878C00728D0686888
:100E3000012810D02168022810D0890700292EDA55
:100E4000616821F0030101436160FFF723FF8046E1
:100E500041F288390DE021688903EFE78901EDE768
:100E6000FFF718FFA0EB0801494502D90320BDE8B0
:100E7000F0876068696800F00C00B0EB810FEFD17B
:100E8000306800F00700B8420BD9306820F0070046
:100E900038433060306800F00700B84201D00120CC
:100EA000E5E72878400705D56068E96820F4E06048
:100EB000084360602878000706D56068296920F437
:100EC000605040EAC100606000F038F86168084A8C
:100ED000C1F30311515CC840064908600648006828
:100EE000FFF7F8FE0020C2E7002002400010024099
:100EF000D05400080C0000200400002004480549DC
:100F000000684968044AC1F30221515CC840704737
:100F10000C00002000100240E0540008044805497D
:100F200000684968044AC1F3C221515CC840704757
:100F30000C00002000100240E054000812A185B00F
:100F40000FC98DE80F0014A0144A0068049051687E
:100F5000134801F00C03042B10D0082B0ED1C1F361
:100F60008343C9031DF803000AD5516804AAC1F3DD
:100F70004041515C0A4A5043B0FBF1F005B0704764
:100F800008494843FAE70000020304050607080978
:100F90000A0B0C0D0E0F1010010200000010024091
:100FA00000127A0000093D002DE9F84F040070D0CE
:100FB0002078C04DC00749D06868C0F3810001287F
:100FC00007D06868C0F38100022809D16868C003AF
:100FD00006D52868800339D560680028E7D035E059
:100FE0006068B0F5803F0BD010B1B0F5A02F11D0E4
:100FF000286820F480302860286820F4802002E0EF
:10100000286840F480302860606890B1FFF742FEA5
:1010100006460AE0286840F480202860F0E700BF18
:10102000FFF738FE801B642873D828688003F7D543
:101030000CE0FFF72FFE064605E000BFFFF72AFE93
:10104000801B6428F0D828688003F7D420789A4E53
:1010500080074FF001094FF0000839D5686810F09B
:101060000C0F07D06868C0F38100022809D16868B6
:10107000C00306D42868800714D52069012808D148
:1010800010E02069B0B1C6F80090FFF703FE0746F4
:1010900005E00AE1FFF7FEFDC01B0228C4D828685E
:1010A0008007F7D52868616920F0F80040EAC100A0
:1010B00028600DE0C6F80080FFF7ECFD074604E06D
:1010C000FFF7E8FDC01B022823D828688007F7D463
:1010D000207800072CD57948A169D9B1C0F80090D3
:1010E000FFF7D8FD074604E0FFF7D4FDC01B022838
:1010F0000FD8686A8007F7D571484FF4FA51006835
:10110000B0FBF1F0009000BF0098411E0091FAD2B0
:101110000EE080E0C0F80080FFF7BCFD074604E069
:10112000FFF7B8FDC01B022875D8686A8007F7D49E
:101130002078400760D5E8690027C00008D4E86936
:1011400040F08050E861E869012700F0805000908D
:101150005C480168C90513D40168834641F4807175
:101160000160FFF797FD824606E000BFFFF792FDA2
:10117000A0EB0A0064284ED8DBF80000C005F5D5C6
:10118000E06801280AD008B1052813D0286A20F0A9
:1011900001002862286A20F0040002E0286A40F07A
:1011A00001002862E06841F2883B98B1FFF772FDC8
:1011B00082460BE0286A40F004002862EEE700BF98
:1011C000FFF768FDA0EB0A0159455AD8286A800745
:1011D000F6D50CE0FFF75EFD824605E0FFF75AFD0D
:1011E000A0EB0A0159454CD8286A8007F6D41FB1F4
:1011F000E86920F08050E861E06988B36968C1F36C
:101200008101022944D00228C6F8608004D0FFF78B
:1012100041FD044638E034E0FFF73CFD074604E0BA
:10122000FFF738FDC01B02282BD828688001F7D4AF
:10123000206AB0F5803F05D16868A16820F40030CD
:1012400008436860D4E908010843696821F474110F
:1012500008436860C6F86090FFF71CFD044606E08E
:1012600025E000BFFFF716FD001B022809D82868FB
:101270008001F7D51BE000BFFFF70CFD001B022823
:1012800002D90320BDE8F88F28688001F4D40EE06D
:101290000128F7D06868226A00F48031914204D1B5
:1012A000616A00F47010884201D00120EAE7002052
:1012B000E8E7000000100240000042428004424281
:1012C0000C0000200070004010B5401EB0F1807F7F
:1012D00001D3012010BD4FF0E02460610F216017A1
:1012E00003F090F80020A06107202061002010BDCD
:1012F00010B504460068416994F83920C1F3C01163
:10130000212A0BD151B1416921F080014161206B4B
:1013100008B1FFF743FA204600F0C0FA206841699F
:1013200094F83A20C1F38011222A0BD151B14169BE
:1013300021F040014161606B08B1FFF72FFA2046B0
:1013400000F09EFA002010BD7047000070B50268E2
:1013500004461068D168536910F00F0F50D003F0A5
:10136000010501F4907635435DD0C20705D0CA056A
:1013700003D5E26B42F00102E263420705D5DA07CA
:1013800003D0E26B42F00202E263820705D5DA077E
:1013900003D0E26B42F00402E263020705D5DA07EC
:1013A00003D0E26B42F00802E263E26B002A33D022
:1013B000800604D5880602D5204600F078FA206819
:1013C0004069E16BC0F38010090700D428B32046C0
:1013D00000F056FA2068416949061AD5416921F0A2
:1013E00040014161606BA0B11B494163606BFFF735
:1013F000F9F9002810D0606B416BBDE870400847D8
:10140000830610D58B060ED52046BDE8704000F04F
:101410004EBA2046FFF798FF70BD2046FFF794FFB5
:101420000020E06370BD030606D50B0604D52046F8
:10143000BDE8704000F0E2BA4006F3D54806F1D5A9
:10144000D168204621F04001D160202184F8391074
:1014500000F022F970BD0000A917000870B5040063
:1014600004D094F83900002510B106E0012070BDC9
:1014700084F83850204600F022F8242084F83900FF
:101480002068C16821F40051C160204600F05AFA7A
:101490002068016921F4904101612068416921F0CF
:1014A0002A0141612068C16841F40051C160E563CF
:1014B000202084F8390084F83A00002070BD70477D
:1014C000F8B5044690F83A0020283CD1C1B3BAB32D
:1014D00094F83800012836D0012084F83800A16241
:1014E000A2850025E563222084F83A00636B174843
:1014F0009862636B1648D862636B16481863606B1A
:10150000134645630846666B216802463046091D4E
:10151000FFF78CFA206801684168009184F8385020
:10152000C16841F48071C1602068416941F00101E6
:1015300041612068416941F0400141610020F8BDEE
:10154000FFE70120FBE70220F9E70000031800088D
:101550003F180008B9170008704770472DE9F84395
:10156000044690F839001F4616460D46202850D1F3
:10157000A5B19EB194F8380001284AD0012084F822
:1015800038004FF00008C4F83C80212084F839006E
:10159000FFF780FBA6848146E68426E00120BDE8B3
:1015A000F883E08C401EE084A0684B46B0F5805F75
:1015B0004FF000024FF080012046009703D000F06A
:1015C0004EFAE8B90DE000F04AFAC8B92888216857
:1015D000C0F308004860206908B16D1C05E0AD1C2F
:1015E00003E0216815F8010B4860E08C0028D8D191
:1015F0004B46002240212046009700F030FA08B107
:101600000320CCE7202084F8390084F838800020BB
:10161000C5E70220C3E7000070B5044690F8390022
:10162000202830D169B362B394F8380001282AD059
:10163000012084F838002162A284E2840025E56359
:10164000212084F83900236B10489862236B1048DE
:10165000D862236B0F481863206B134645632668D6
:10166000206B321DFFF7E2F921686FF0400008603F
:1016700084F838502068416941F0800141610020C0
:1016800070BD012070BD022070BD00004918000827
:1016900077180008B917000870477047FEE7000088
:1016A000012291020148FFF7F0BA0000000C01404E
:1016B00000224FF480610148FFF7E7BA000C0140B7
:1016C0000548017819B100210170FFF7E9BF012138
:1016D0000170FFF7EDBF000014000020FEE7FEE7F9
:1016E00070477047FFF7DCBA10B5FFF7E1FA00F07A
:1016F00008F84FF4E13000F013FABDE8104001F0B3
:1017000067BF30B58FB028216846FEF734FD14213D
:101710000AA8FEF730FD01210804CDE900100024DD
:10172000029402250491CDE907504FF4E01009908E
:101730006846FFF739FC08B172B6FEE70F20CDE925
:101740000A054FF48060CDE90C4002210AA80E94EE
:10175000FFF73EFB002801D072B6FEE70FB030BDA8
:101760000D48016841F00101016041680B4A1140D8
:10177000416001680A4A11400160016821F480213A
:101780000160416821F4FE0141604FF41F01816056
:101790000449C00308607047001002400000FFF8D1
:1017A000FFFFF6FE08ED00E010B5406A0021C1859C
:1017B000C184FFF7C9FD10BD70B5446A2068406957
:1017C00094F83910C0F3C0100025212904D118B1B4
:1017D000E584204600F062F82068406994F83A10E9
:1017E000C0F38010222904D118B1E585204600F00D
:1017F00047F8E06B40F01000E0632046FFF7A4FDDF
:1018000070BD10B50146406A09680968890613D49D
:101810000021C1850168CA6822F48072CA6001682B
:101820004A6922F001024A6101684A6922F04002D5
:101830004A61202180F83A10FFF78EFE10BD10B5E6
:10184000406AFFF78AFE10BD10B50146406A09687C
:10185000096889060CD40021C18401684A6922F014
:1018600080024A610068C16841F04001C16010BD5A
:10187000FFF712FF10BD10B5406AFFF70EFF10BD55
:101880000168CA6822F49072CA6001684A6922F04D
:1018900001024A61202180F83A1070470168CA6845
:1018A00022F0C002CA60202180F83910704710B5BC
:1018B00090F83A10222901D0022010BD8168B1F5BC
:1018C000805F11D00169002901681FD0496801F0CB
:1018D0007F03816A4A1C82620B70C18D491E090414
:1018E000090CC18518D02BE00269816A002A0268C0
:1018F000526805D0D2B20A80816A491C8162ECE745
:10190000C2F308020A80816A891CF7E74A68816A83
:101910004B1C83620A70E0E70168CA6822F020026B
:10192000CA600168CA6822F48072CA6001684A69A4
:1019300022F001024A61202180F83A10FFF70CFEE4
:10194000002010BD2DE9F041044600680169E268FD
:1019500021F44051114301612169A0680843616984
:1019600008432168CA6841F20C639A430243CA6083
:1019700020684169A26921F44071114341611E4907
:10198000206864253226884202D1FFF7C7FA01E0B9
:10199000FFF7B4FA00EBC00101EB001160686FF0D3
:1019A00018078000B1FBF0F2B2FBF5F2B1FBF0F3E7
:1019B0007A4303EB8202B1FBF0F306EB0212B2FBB7
:1019C000F5F2B3FBF5F302F0F00202EB0312B1FB08
:1019D000F0F3B1FBF0F0B0FBF5F0784303EB8000DF
:1019E00006EB0010B0FBF5F0216800F00F0010448A
:1019F0008860BDE8F08100000038014090F839109F
:101A0000212901D0022070478168B1F5805F016A09
:101A10000BD04A1C0262026809785160C18C491ED1
:101A20000904090CC1840ED017E009880268C1F3CB
:101A30000801516001690029016A02D0491C016254
:101A4000ECE7891CFBE70168CA6822F08002CA60E3
:101A50000068C16841F04001C160002070472DE975
:101A6000F041984617460E460446069D1DE0681C48
:101A70001BD02DB1FFF70EF9A0EB0800A84214D936
:101A80002068C16821F4D071C1602068416921F0EB
:101A900001014161202084F8390084F83A000020D7
:101AA00084F838000320BDE8F0812068006836EA39
:101AB000000004D00020B842D9D00020F3E7012074
:101AC000F9E7000038B5124800680168C943C90643
:101AD00018D401680025406800900D48FFF708FC05
:101AE0000C48006840680C4C0090C0F180002060F9
:101AF00080220A490648FFF7E3FC0848216845545C
:101B000003F0FEF8BDE838400148FFF71FBC0000B5
:101B1000D4030020140400201000002054030020EF
:101B2000F0B5434E074685B0B06940F48040B061DF
:101B3000B06900F480400490B06940F00400B061E6
:101B4000B069002400F00400049070150090022099
:101B5000CDE901040320374D039069462846FEF77E
:101B6000AFFF2815CDE90004694628460294FEF728
:101B7000A7FF324D30482860C5E901740C20EC60A5
:101B8000C5E90440AC612846EC61FFF767FC2868B2
:101B9000C16841F01001C160706940F001007061DE
:101BA0007069002200F00100049011460E20FFF73A
:101BB000DDF80E20FFF7CCF8002211460F20FFF7CA
:101BC000D5F80F20FFF7C4F805F140061C48C6E918
:101BD00000048027C6E9024720203461C6E9054099
:101BE0003046F461FEF7F4FE6E63154875624436C4
:101BF000143801C6102091C605F1840046F810493A
:101C00007461B461F461FEF7E3FE2E6300221146B5
:101C100025207562FFF7AAF82520FFF799F88022A2
:101C2000A5F180012846FFF74BFC05B0F0BD000090
:101C3000001002400008014000380140D403002099
:101C400058000240FEE700007CB50446002094F8EE
:101C5000DA200D46012A03D0022A01D0032A14D12A
:101C600001AB6A460121204600F097F9009A4FF433
:101C70007F018A4202D8019A8A4206D9002804D1FB
:101C800025B10F49204601F0E5FC7CBD0422FF216F
:101C9000204600F04AFE054600227021204600F052
:101CA00044FE05430022FF21204600F03EFE05438E
:101CB00000228021204600F038FE28437CBD000031
:101CC0001B010020F8B50646002401220B213046F6
:101CD00000F02BFE074600220B21304600F025FEC7
:101CE00040EA07056A461321304600F018FB641CE1
:101CF0009DF800102843E4B2490704D0032C04D215
:101D00000028E2D0F8BD032CFCD36FF00B00F8BD27
:101D1000F0B591B004460123FE22892100F0E4FDD4
:101D200020B900228821204600F0FFFD002584F81C
:101D3000F0504FF47A70A4F852014FF4C870A4F830
:101D400054015748C4F8580156482562C4F8D400D5
:101D50006946204600F0A8F8060009D18DF8005029
:101D60008DF801504022694604F11000FEF7EAF9AF
:101D70006420A4F834014FF46170A4F836014FF4E4
:101D8000FA70A4F838014FF42060A4F83C01012750
:101D900084F850713A468021204600F0C6FD064383
:101DA0000122FF21204600F0C0FD0643002211461B
:101DB000204600F0BAFD064310AA9121204600F00B
:101DC000AEFA06439DF8400084F83A010122002152
:101DD000204600F0AAFD06430022FF21204600F025
:101DE000A4FD064300228021204600F09EFD3043E2
:101DF0000026002852D1B1B20122204600F06EFB2D
:101E0000761C062EF5DB002848D100220221204650
:101E100000F064FB002841D100220321204600F09D
:101E20005DFB00283AD100220421204600F056FB39
:101E3000002833D100220521204600F04FFB002866
:101E40002CD14FF490120021204600F088FB00288E
:101E500024D14FF480420121204600F080FB00286D
:101E60001CD14FF40C120221204600F078FB002810
:101E700014D100220321204600F071FB00280DD16F
:101E8000FF2084F8300102460121204600F04DFD7C
:101E900084F83271002801D184F8155111B0F0BDD9
:101EA000856B0100A470090070B506460C46007CE5
:101EB00001F8080B304600F044F8002833D12073B5
:101EC00004F11001304600F0DBF900282BD104F1B9
:101ED0001401304600F0E4F8002824D1002501E088
:101EE000002820D104EB8502A9B23046243200F04C
:101EF0007BF8002817D16219A9B23046183200F0D9
:101F000066F86D1C062DEBDB00280CD104F13C01BA
:101F1000304600F09AF9002805D1211D3046BDE871
:101F2000704000F0BBB870BD10B50C460A460921E0
:101F300000F0F5F9002803D1217801F001012170AA
:101F400010BD3EB50C46054602AAF82100F0FDF989
:101F500000280ED16A460421284600F0EBF900283B
:101F600007D1BDF8081029B1009AB2FBF1F1216048
:101F7000A9613EBD2168FBE738B50C466A461321CE
:101F800000F0CDF99DF8001001F0070211F0180FD4
:101F9000226001D06FF0050038BDF8B515461C462B
:101FA00006466A460E2100F0D0F9BDF8001009057A
:101FB000C9082960002809D16A460C21304600F082
:101FC000C4F9BDF800100905C9082160F8BD034631
:101FD0000020062902D3001F002102E0194491F8D5
:101FE0002810117070470000F8B50446002015460F
:101FF00006292ED2DFE801F00305191B1D1D646BB5
:1020000025E06A464421204600F09FF9002803D1CC
:10201000BDF800104FEA412606D1EEB12E604FF018
:102020000101A66384F82910F8BDE46B0FE0246C6D
:102030000DE06A464FF06401204600F086F9002862
:1020400004D100BFBDF800104FEA4124ECD12C6050
:10205000F8BD6FF00300F8BDA16B29604FF00001DF
:10206000E0E77CB50C4690F8DA100025012604293B
:102070000AD06A46142100F052F900280BD19DF8CD
:102080000010C90706D007E001A9FFF775FF019905
:10209000042901D025707CBD26707CBD01F096B866
:1020A00001F0F6B801F002BAF0B58DB00C46054665
:1020B0000C2302AA142100F053F906007ED100215E
:1020C000A17521609DF813009DF81220616000EB5E
:1020D00002209DF80F209DF80E304FF47A7E02EB1F
:1020E00003221204D209E2609DF811309DF81060BD
:1020F00080B203EB06231B04DB0923619DF80B3040
:102100009DF80A6003EB06239BB2A382B5F85261E7
:102110009DF8087095F831C176451FD0464306F505
:10212000FA7696FBFEF02E8C95F81CE080B2B6B2E3
:10213000BEF1000F12D05E43B2EB262F08D1BCF1E6
:10214000000F02D042F2B82008E048F6E0200DE08F
:102150005043A2EB2626B0FBF6F080B2BCF1000F94
:1021600004D0810821818001E07501E02081E175C2
:102170000CA8CDE900403946284601F0A3F8060036
:1021800025D19DF83000207605F150011C220D4626
:1021900005A8FDF7D7FF2089ADF81C00E07D8DF87C
:1021A0002B006089ADF81E0060680690E06808901A
:1021B00020690990A08AADF8280000E007E0207EA1
:1021C0008DF82C001C2205A92846FDF7BBFF0DB099
:1021D0003046F0BD38B5054600200C468DF80000AD
:1021E0006A460121284600F09AF800282AD12346A1
:1021F0009DF800200021284602F0E3FF002821D1AD
:10220000A31C9DF800200121284602F0DAFF0028D7
:1022100018D1631C9DF800200221284602F0D1FF4E
:1022200000280FD1E31C9DF800200321284602F06E
:10223000C8FF002806D1231D9DF800200421284650
:1022400002F0BFFF38BD01F0AAB938B50C4605460B
:102250006A46012100F063F800280BD19DF80010B8
:1022600085F83011090601D5012100E00021217017
:1022700085F84C1038BD02460020127F0A70704766
:1022800038B50D4604466A46202100F05EF8002865
:1022900007D1BDF8001029B1C900296021620121D0
:1022A000217738BD216A29600021F9E7012301F077
:1022B00078BA01F096BA70B5047C054614B900F0FE
:1022C000EFF910B9284601F017FA50EA040102D1DB
:1022D000032185F8321170BD70B50C46054600210A
:1022E00000F04DF8002810D12846FFF7E4FF002841
:1022F0000BD121462846FFF7D7FE002805D12846F6
:10230000BDE870400021FFF7DDBC70BD08B50020BE
:1023100001460090491C0091FA29FBD308BD10B575
:10232000002490F85C0101F0C1FB08B16FF01304C8
:10233000204610BD10B5002490F85C0101F0B9FBF7
:1023400008B16FF01304204610BD10B5002490F8BA
:102350005C0101F0CFFB08B16FF01304204610BD03
:1023600010B50024402B00D3241F90F85C019BB2D1
:1023700001F0B5FB08B16FF01304204610BD024612
:10238000002003290BD003DC49B1012904D106E068
:10239000142904D0152902D06FF00700704711747A
:1023A000704770B51C46049E054611B16FF00900D8
:1023B00070BD142A08D0152A0FD0052C6FD2DFE883
:1023C00004F066686A6C6F002EB10122BDE87040AF
:1023D000842100F0AABA1022F8E70122FF2100F0C0
:1023E000A4FA044600221146284600F09EFA04434F
:1023F0000022FF21284600F098FA044301228021A0
:10240000284600F092FA044302228521284600F073
:102410008CFA04430422FF21284600F086FA044384
:102420000022CD21284600F080FA04431122CC215D
:10243000284600F07AFA04430722FF21284600F0DC
:1024400074FA04430022BE21284600F06EFA0443C9
:102450000622FF21284600F068FA04430922CC2115
:10246000284600F062FA04430022FF21284600F0CB
:102470005CFA04430122FF21284600F056FA044387
:1024800000221146284600F050FA204370BD002279
:1024900007E0012205E0022203E0032201E017E049
:1024A00004220A21284600F040FA0028EED196B115
:1024B0001023EF228421284600F016FA0028E5D1E7
:1024C00085F8DA402846BDE870400021FFF7FABBE6
:1024D0006FF00A0070BD0023EBE700002DE9F0412A
:1024E000044600200D461646071F034601460246D5
:1024F000062D02D33846BDE8F08156B104EB8501C4
:102500004B6B0121062DF5D2DFE805F005080F120F
:1025100015180122F6E784F8281017E0C3F34F22BC
:102520004421204600F00CFA0EE084F82A100DE059
:1025300084F82B100AE05300FE2201E01301EF2281
:102540006021204600F0D0F90028D4D1611926B1CD
:102550005FF0010281F82820CDE70022FAE770B58C
:1025600014460022431800EB810593F82830DBB1B4
:10257000C4F34F23062914D2DFE801F00305080A4B
:102580000C0C446310E01A46442105E0C4630BE0E0
:10259000046409E01A46642100F0D2F9020003D075
:1025A00003E06FF0030200E06C63104670BD01F0C1
:1025B00008BB01F067BB01F083BB01F091BB2DE9C3
:1025C000F8430746002090460E468DF800006A4604
:1025D00001213846FFF7A3FE05009DF800000446E0
:1025E0002ED1291FB8F1010F06D0052E2CD2DFE81D
:1025F00006F0191C1F222500052E25D2DFE806F063
:102600000306090C0F0044F0100419E044F02804FC
:1026100016E044F0040413E044F0400410E044F0F9
:1026200080040DE004F0EF040AE004F0D70407E0B2
:1026300004F0FB0404E004F0BF0401E004F07F04B4
:10264000844210D015B10EE00D460CE02246012167
:10265000384600F06AF9050005D187F83041384660
:102660007969FFF7A4FF2846BDE8F88301F08BBB2A
:1026700070B504460D46217FB4F85221002049B1BF
:10268000B2F57A7F08D000222021204600F058F9C8
:10269000002800D1256270BDC5F3CF02F4E7000029
:1026A000F8B501250646047C2A46802100F03DF954
:1026B0000122FF21304600F038F900221146304651
:1026C00000F033F996F83A219121304600F02DF9C7
:1026D00001220021304600F028F90022FF21304677
:1026E00000F023F900228021304600F01EF93CB1B1
:1026F0000425012C26D0032C2FD06FF00700F8BD45
:1027000001220021304600F010F98DF80050002819
:10271000F5D100244FF4FA6705E024B16A460021A0
:102720003046FFF7FCFD9DF80020641C25EA0201FD
:10273000014304D0BC42E2D36FF00600F8BDBC42B6
:10274000EBD3F9E718B901213046FFF77DFA0222F1
:1027500009E000BF86F83251F8BD18B901213046B2
:10276000FFF772FA04220021304600F0DEF800285C
:10277000F0D0F8BD30B597B00446402101A8FDF770
:10278000FAFC00258DF84450ADF850508DF85450A7
:1027900001212046169500F0DAFA94F8142194F8F5
:1027A0001311012A06D802D1202903D808E03AB92A
:1027B0000C2905D915AA16A9204601F012F802E045
:1027C000204601F08DFA474900287DD194F8500148
:1027D00008B9D4F84C11204600F03CFF00287ED107
:1027E00000220423114620460095FFF7DAFD002859
:1027F00075D10122FF21204600F097F8054614AA62
:1028000084212046FFF7A1FD05430022FF21204639
:1028100000F08BF8284362D1BDF8500001A90001F7
:10282000C4F8D4002046FFF73FFB002857D111A978
:102830002046FFF779FB002851D19DF8440084F829
:102840003101402201A904F11000FDF77BFC11AA1F
:1028500001212046FFF763FD002840D19DF8440088
:1028600084F83001002211462046FFF7A8FE002818
:1028700035D1002202212046FFF7A1FE00282ED1EB
:10288000032084F8320112AA00212046FFF7DBFC66
:10289000002824D19DF8480084F8E80012AA0121FC
:1028A0002046FFF7D0FC002819D19DF8480084F895
:1028B000E00013AA0321204602F093FB00280ED16A
:1028C000139813AA042100E009E0C4F8E4002046AC
:1028D00002F087FB002802D11399C4F8DC1017B06E
:1028E00030BD0000280000202DE9F84390F85C611D
:1028F00090461F46894600246A46304601F0D6F8C5
:102900006FF0130508B12C460CE09DF800204946F5
:1029100002EA08023A438DF80020304601F043FBFA
:102920000028F0D12046BDE8F88310B5002490F8C7
:102930005C0101F038FB08B16FF01304204610BDB4
:1029400010B5002490F85C0101F03EFB08B16FF077
:102950001304204610BD10B50024402B00D3241FC3
:1029600090F85C019BB201F024FB08B16FF01304F6
:10297000204610BD2DE9F047B0F854C1D0F85801F9
:10298000DDE90A860CFB00F58035DDE908972C0AA5
:102990004FF0000A04FB0CF4554652B1880200EBDC
:1029A0005200B0FBF2F000EB4000404300F5004065
:1029B000050C07F50040000C0622C01CB0FBF2F02D
:1029C00003FB09F303F50043190C4943C0EBC000B6
:1029D000B0F5803F01D31C4808E0FF1CB7FBF2F0C4
:1029E000C0EBC00000F50040000C4043084400EB81
:1029F0005800B0FBF8F08003FE227F30B0FBF2F00D
:102A000068434FF47A7100F5FA70B0FBF1F0000101
:102A100000F5FA70B0FBF1F7402004F12001B1FBA2
:102A2000F0F000F001FE054627B104EB5700B0FBC3
:102A3000F7F000E0002000F0F7FD3560854200D996
:102A400030605046BDE8F0870000F0FF01EBC101A7
:102A500040F277600902A1FB000170472DE9FF4FAA
:102A600087B00446006A0690884608694FF47A7178
:102A70004843000C0390D8F80C000590DFF8F8B13B
:102A80004FF4481604AA4146204600F063FD06AA0A
:102A90004146204600F06CFD81464FF47A7104985F
:102AA000069D484300F50040070C4D43B54200D950
:102AB0003546B9F1000074D1D4F8DC00019094F8E7
:102AC000E06001463246204600F0DCF88246D4F849
:102AD000E4000090014694F8E820204600F0D2F887
:102AE00001460320082E00D1022051444143C9026F
:102AF0004FF47A7001F5FA71B1FBF0F140F27762B0
:102B0000514301F5FA71B1FBF0FA04988030010AE3
:102B100001FB0AF08030060A080204900FB14EB1A2
:102B200009E00999C1F800B0C4F840B10A98002141
:102B300001609CE001264FF44870029003984F49D1
:102B40000004B0FBF7F0884200D908464FF4167134
:102B500000FB01F906EB4600800000F065FD400037
:102B60000390B8F8081046486A424143380400EB25
:102B700042024FF47A7002F5FA72B2FBF0F243109F
:102B800003EB0743B3FBF0F01202B2FBF0F00028B6
:102B900000DA404298F8182000021AB14FF480354C
:102BA0000FE065E041F25C22B1FBF2F1C0F580304C
:102BB000484300F50040000C00F5803040084043D9
:102BC000850B4FF4487105FB01F000F50040010C46
:102BD00009F50040000C49434043084400F024FD3F
:102BE000000464213230B0FBF1F10398B1FBF0F046
:102BF00040F6B531484341F2883108444900B0FB02
:102C0000F1F74FF47040874200D90746DDE9001024
:102C100008444FF47A7800F5FA70B0FBF8F04FF4FE
:102C2000C81101EB5001B1FBF0F000F0FDFC000217
:102C300000F5FA70B0FBF8F07F434043384400F0F1
:102C4000F3FC414648430EB1584500D9584609990E
:102C50000860C4F840010A98029B03908DE80806BA
:102C6000DDE904122B462046FFF784FE81464846E4
:102C70000BB0BDE8F08F0000AE878F02666666007D
:102C80009A99060000B50B461146FFF7DFFE4FF498
:102C90007A7100F5FA70B0FBF1F04B4303EB500191
:102CA000B1FBF0F000BD00B50B461146FFF7CEFEBC
:102CB0004FF47A7100F5FA70B0FBF1F0434303F57D
:102CC000FA73B3FBF1F000BD0146C0B2090A8840B7
:102CD000401C70474000801CC0B27047F8B50646E3
:102CE00000228321FFF721FE040011D100254FF4BB
:102CF000FA676A4683213046FFF711FB04469DF8C8
:102D0000000020430BD0BD4202D300BF6FF0060489
:102D1000012283213046FFF708FE2043F8BD6D1CD9
:102D2000BD42E6D3F2E70022114648B1401E02E060
:102D30004008491C89B2020AFAD161F31F2082B20D
:102D400010467047FF2101EB5000C0B270472DE9DB
:102D5000F04F0E4691B0002104460E9109914FF4B8
:102D6000C8500C910A91049094F8F0508A468B4612
:102D7000072D7ED0012280212046FFF7D6FD804618
:102D80000122FF212046FFF7D0FD40EA080700227C
:102D900011462046FFF7C9FD40EA07080622FF2139
:102DA0002046FFF7C2FD40EA080708AA8321204613
:102DB000FFF7B5FA40EA07089DF82000832140F0AC
:102DC00004022046FFF7B1FD40EA08070722FF2171
:102DD0002046FFF7AAFD40EA07080122812120468C
:102DE000FFF7A3FD40EA08072046FFF78FFA40EA05
:102DF0000708012280212046FFF797FD40EA0807D7
:102E0000F00756D0E80754D16B2294212046FFF7F3
:102E10008CFD40EA07082046FFF760FF40EA0807FC
:102E200001AA90212046FFF785FA40EA0708019899
:102E30002422C0F30621C0F3C0300E910C909421DF
:102E40002046FFF772FD40EA08072046FFF746FFDD
:102E500040EA070801AA90212046FFF76BFA40EAF2
:102E600008070198010E8DF81410010C8DF815104B
:102E700000E0A7E1010A8DF816108DF81700252251
:102E800094212046FFF751FD40EA07082046FFF74E
:102E900025FF40EA080901AA90212046FFF74AFAD7
:102EA00040EA09070198010E8DF81810000C8DF802
:102EB0001900B0077DD5A8077BD4022294212046B3
:102EC000FFF733FD40EA07082046FFF707FF40EA17
:102ED00008070DAA90212046FFF721FA40EA0708CB
:102EE0007B2294212046FFF720FD40EA0807204678
:102EF000FFF7F4FE40EA07080BAA90212046FFF7EF
:102F00000EFA40EA0807772294212046FFF70DFDCC
:102F100040EA07082046FFF7E1FE40EA080701AA59
:102F200090212046FFF706FA40EA07080198782228
:102F30000007400E8DF8200094212046FFF7F5FC95
:102F400040EA08072046FFF7C9FE40EA070901AA40
:102F500090212046FFF7EEF940EA0908019879220E
:102F6000C007400E8DF8200094212046FFF7DDFCBD
:102F700040EA08072046FFF7B1FE40EA070801AA29
:102F800090212046FFF7D6F940EA080701987A22F7
:102F9000C006400E8DF8200094212046FFF7C5FCA6
:102FA00040EA07092046FFF799FE40EA090801AA0E
:102FB00000E005E090212046FFF7BCF940EA080751
:102FC00070077DD568077BD47B2294212046FFF7CC
:102FD000ACFC40EA07082046FFF780FE40EA0807FD
:102FE00009AA90212046FFF7A5F940EA07097C22AB
:102FF00094212046FFF799FC40EA09082046FFF794
:103000006DFE40EA08070AAA90212046FFF792F9D0
:1030100040EA0708732294212046FFF786FC40EA25
:1030200008072046FFF75AFE40EA070801AA902148
:103030002046FFF77FF940EA08070198742200064E
:103040004FEA104994212046FFF76FFC40EA070839
:103050002046FFF743FE40EA080701AA90212046D8
:10306000FFF768F9019940EA070849EA116B7522F0
:1030700094212046FFF759FC40EA08072046FFF755
:103080002DFE40EA070801AA90212046FFF752F9D9
:1030900040EA08070198762200064FEA104A942178
:1030A0002046FFF742FC40EA07092046FFF716FEDC
:1030B00040EA090801AA90212046FFF73BF900E009
:1030C00004E0019940EA08074AEA116A00228121D6
:1030D0002046FFF72AFC40EA07080622FF21204687
:1030E000FFF723FC40EA080708AA83212046FFF7E0
:1030F00016F940EA07089DF82000832100F0FB0242
:103100002046FFF712FC40EA08090122FF21204671
:10311000FFF70BFC40EA0907012200212046FFF7D8
:1031200004FC40EA07080022FF212046FFF7FDFBD0
:1031300040EA0807002280212046FFF7F6FB50EA0C
:1031400007013FD1F00710D0E8070ED10E9884F8A0
:1031500013010C9884F81401002005AA2718135CA9
:10316000401C87F82A310628F8DBB00709D5A807E4
:1031700007D49DF8340084F8F1009DF82C0084F801
:10318000F200700719D5680717D40998C4F8180118
:103190000A98C4F81C014FEA4B20C4F82001002013
:1031A000BAF1000F08D0049AAAEB02004FF47A1289
:1031B00050430014404200B2E06035438DF8205087
:1031C00084F8F05011B00846BDE8F08F30B585B0F6
:1031D00005464FF4FA6002900020039040F6363026
:1031E00008600C4669462846FEF7F4FF00284DD1DA
:1031F0009DF8001029B99DF8011011B99DF8021031
:1032000011B302AA0221284601F0EBFE00283DD1AD
:103210009DF8001029B10299226801F24E21114453
:1032200021609DF8021031B10299226801F2B221A9
:1032300002EB410107E09DF8011029B102992268D3
:1032400001F52571114421609DF8031061B103AAB5
:103250000321284601F0C5FE0399226801F5257176
:1032600011442160002811D19DF8041061B104AA15
:103270000421284601F0B5FE0499226801F22621B6
:1032800011442160002801D12168696105B030BD79
:1032900038B50C4640F2FF756A462821FFF755F80D
:1032A00000280DD1BDF80010C1F30B02ADF80020CD
:1032B000AA424FF0FA0101DDA2F580524A43226092
:1032C00038BD00002DE9FF4F8BB04FF00009199D6C
:1032D0008DF800909A460646C8464F468DF80490F1
:1032E0008DF808908DF80C90ADF81090C1F3C304E0
:1032F000CDF81490BCB1052C15D0072C13D00C2C94
:1033000011D00D2C0FD00E2C0DD00F2C0BD0002077
:1033100083466A4600213046FEF759FE9DF80010AC
:10332000C9B110B11DE00120F2E705AB06AA304695
:103330001899FFF793FBA0B91899059807AA488137
:1033400000213046FEF750FE079921B1069A8A42C5
:1033500001D94FF0010920B902AA02213046FEF737
:1033600036FE9DF8081011B338BB08AA022130467A
:10337000FEF73AFE80B90122FF213046FFF7D5FA69
:1033800050B904AAB6213046FEF7DFFF20B900226B
:10339000FF213046FFF7C9FABDF810104902C6F800
:1033A0004811089A1AB1914201D94FF0010820B989
:1033B00003AA03213046FEF70AFE9DF80C1091B1D6
:1033C00090B9BAF1000F12D00D980102B1FBFAF0DA
:1033D000824609AA03213046FEF706FE099911B17B
:1033E0008A4500D2012720B1287858B32DE000206B
:1033F000EEE7BBF1000F01D0FF2013E0012C10D04D
:10340000022C0ED0032C0CD0062C0DD0092C0BD086
:10341000082C04D00A2C02D0B8F1000F06D00320EB
:1034200000E00520287010E00420FBE7042C00D009
:103430000FB10220F6E7B9F1000F01D00120F1E74A
:103440000020287018990020488101AA01213046E7
:10345000FEF7BDFD002825D19DF8001011B15FEAEF
:10346000090100D0012186F82E10042C15D09DF8FA
:10347000041091B15FF0000186F82F109DF808103C
:1034800011B15FEA080100D0012186F830109DF8E3
:103490000C1001B11FB1012102E00121ECE7002174
:1034A00086F831100FB0BDE8F08F000010B5002491
:1034B0000B46062814D2DFE800F003050B0D0F11B0
:1034C00008A100E00BA11846FCF782FE204610BDC3
:1034D0000CA1F8E70FA1F6E712A1F4E715A1F2E7B6
:1034E00018A1F0E752616E67652056616C6964202F
:1034F000202000005369676D61204661696C2020BF
:10350000202000005369676E616C204661696C2061
:10351000202000004D696E2052616E676520466173
:10352000696C00005068617365204661696C2020F9
:1035300020200000486172647761726520466169ED
:103540006C2000004E6F205570646174652020204F
:103550002020000038B51446CA6822606A4600F090
:1035600007F8002803D12168009A1144216038BD72
:10357000F8B5064600200D461060144669463046F0
:10358000FEF779FE002809D19DF80010002905D02A
:10359000A98A326A51438031090A2160F8BD38B5E1
:1035A000144621B1012905D06FF003010DE06A46F0
:1035B000502101E06A467021FEF7B1FE010004D1FE
:1035C0009DF80000FFF786FB2070084638BD00001C
:1035D00038B51248816941F0080181618069104C59
:1035E00000F0080000900022C0212046FDF74DFBAE
:1035F0000C492046FDF764FA0A4920461031FDF7D0
:103600005FFA012240212046FDF73FFB2046BDE83E
:10361000384001228021FDF738BB00000010024035
:10362000000C014030030020024600204FF0804192
:1036300000E089089142FCD808E04318934203D87F
:10364000D21A01EB500000E0400889080029F4D1AB
:1036500070470000F8B5074600200D460446061FD7
:1036600013E0CBB2641CFF2B05D0042B0CD8295DD2
:1036700000206A4639E0295D641C61B1012912D03D
:10368000022918D003291ED03046295D002901D017
:103690000028E6D0F8BD2A5D641C295D01EB0221FB
:1036A000A7F8341116E0295D641C2A5D02EB0121A4
:1036B000A7F836110EE02A5D641C295D01EB02219A
:1036C000A7F8381106E0295D641C2A5D02EB012190
:1036D000A7F83C11641C295D0029C2D1F8BD00BFC8
:1036E00015F804C002F800C0401C641C9842F7DBC7
:1036F0003846FFF730F9C8E7F8B5064600208DF8E0
:10370000000004464FF4FA6569463046FEF7A9FC0E
:10371000002807D19DF80010012903D0641CAC4299
:1037200001D3C01FF8BD3046FEF7F0FDECE72DE9F0
:10373000F04385B01D0091460E4607464FF0000449
:1037400001D097F8304102220121FFF7EEF84FF047
:10375000000838B90021384600F052F910B9B9F123
:10376000010F11D086F8008000280AD1002D08D062
:10377000224601213846FFF7D8F8002801D187F802
:10378000304105B0BDE8F083012004A9CDE9001661
:10379000CDE90280424601461346384600F0B8F9AA
:1037A000E2E72DE9F0411E461746054690F8304104
:1037B0000023324600F040F9002810D100233246A1
:1037C00039462846FFF7B3FF002808D122460121D9
:1037D0002846FFF7AAF8002801D185F83041BDE856
:1037E000F0812DE9F74F96B006462C200B90002073
:1037F0000E9011908DF84C008DF850001290B6F894
:103800003CA14FF0B4094FF0030B01464FF00608FE
:10381000074672180020491C82F824014145F8D35C
:103820000122FF213046FFF780F8040079D1002201
:103830004F213046FFF779F80400F7D12C224E21B2
:103840003046FFF772F80400F0D10022FF21304625
:10385000FFF76BF80400E9D14A46B6213046FFF77E
:1038600064F80400E2D1002280213046FFF75DF8C1
:103870000400DBD1002314AA13A93046FFF791FFFF
:103880000400D3D106F592730EAACDF800800693FA
:103890000E90CDE903B29A1D0A92CDE9019001463E
:1038A000304601F000FB04003BD109A930460E9DD3
:1038B00001F03EFC040034D1BDF82410514531D94B
:1038C00000213218401C82F824114045F9D300E051
:1038D0006D1C09EB050001F0FDFB10B90B9885424A
:1038E000F6D301200EA9CDF800801590CDE903B1E3
:1038F000CDE9019501463046069B0A9A01F0D3FABC
:10390000040079D109A930460E9D01F011FC040094
:1039100072D1BDF82410514505D901205F4612909F
:1039200001E051E0159089B2514555D21598129099
:103930005F4642460FA80699FCF704FCBDF8241028
:10394000B1EB0A0000D54042834611AB2A464146FE
:103950000A9801F013FB1198411C0FD0484401F064
:10396000B9FB159988422ED1119D41462A467F1CEC
:10397000069801F0E2FA040003D03DE06FF0310454
:103980003AE030466D1C069901F037FC040033D153
:1039900009A9304601F0CCFB04002DD1BDF824105C
:1039A000B1EB0A0000D5404251450ED958450AD91D
:1039B0000FA9304601F021FC044642460FA90698A3
:1039C000FCF7C0FB7F1E3CB116E0834642460FA8C1
:1039D0000699FCF7B7FBB8E7179807601899129893
:1039E0000870012086F815011798007886F81301F1
:1039F0001898007886F8140119B02046BDE8F08FB9
:103A000010B541F0010204460021FEF78EFF0028A8
:103A100011D12046FFF770FE00280CD1002120466E
:103A2000FEF750F9002806D120460022BDE81040DC
:103A30001146FEF77ABF10BD2DE9F04385B04FF077
:103A400000051E0091460F4680462C468DF810500A
:103A500001D098F8305101221146FEF766FF38B9BF
:103A600040214046FFF7CCFF10B9B9F1010F10D04B
:103A70003C7000280AD1002E08D02A460121404679
:103A8000FEF753FF002801D188F8305105B0BDE89A
:103A9000F083012004A900970394CDE90110224688
:103AA00001461346404600F033F8E2E7012300F0F8
:103AB00016B838B5144604236A4600F010F89DF88D
:103AC00003109DF800209DF8023001EB02619DF883
:103AD0000120120402EB03221144216038BD70B5AD
:103AE0001D46134600242A4600F040FB00B1012485
:103AF000204670BD38B5144602236A46FFF7EFFF33
:103B00009DF801109DF8002001EB0221218038BDB5
:103B10002DE9FF4F81B00020DDE90EA9DDE9106538
:103B20000F468DF800009B460122FF210198FEF709
:103B3000FCFE0446002211460198FEF7F6FE40EA1C
:103B400004080022FF210198FEF7EFFE40EA080476
:103B50006FB12EB15246CB210198FEF7E0FB044332
:103B6000A5B16A46EE210198FEF7D9FB0DE02EB112
:103B7000CB21039A0198FEF7D8FE044335B15B468A
:103B80008022EE210198FEF7AFFE04430122FF21BF
:103B90000198FEF7CAFE0443012200210198FEF7B6
:103BA000C4FE04430022FF210198FEF7BEFE9DF8EB
:103BB0000010204301F0EF0289F8002005B0BDE8B5
:103BC000F08F2DE9FF4107464FF4FA600290002084
:103BD000039044F620600E466FF0030581424FD3F8
:103BE000A6F6363469463846FEF7F4FA002844D182
:103BF0009DF8001029B99DF8011011B99DF8021027
:103C000001B302AA0221384601F0EBF9002834D1B1
:103C10009DF8001029B1029901F24E21A1422FD244
:103C2000641A9DF8021021B1029901F2B2214900F3
:103C300005E09DF8011029B1029901F52571A14215
:103C40001ED2641A9DF8031061B103AA03213846FD
:103C500001F0C7F9039901F52571A14210D2641A48
:103C600000280AD19DF80410002906D0A4F22622CB
:103C70000421384601F0C6FA7E6104B0BDE8F08147
:103C80002846FAE730B40C4A0C4BFA24914201DD85
:103C9000114605E0994201DA194604E0002902DBE9
:103CA00091FBF4F103E091FBF4F101F580518AB24C
:103CB00030BC2821FEF744BE18CC07000030F8FFC6
:103CC00030B587B004AD012305AC0095CDE90143C3
:103CD000039313460A460021FFF71AFF07B030BDD1
:103CE0002DE9F0479046894686B004460025B42663
:103CF00006274FF02C0A0122FF21FEF716FEB0B96D
:103D000000224F212046FEF710FE80B92C224E21C2
:103D10002046FEF70AFE50B90022FF212046FEF79A
:103D200004FE20B93246B6212046FEF7FEFD0020F3
:103D300001462218401C82F82411B842F9D3B8F188
:103D4000000F01D106E06D1C701901F0C3F908B92C
:103D50005545F8D305A90097CDE90391CDE9016553
:103D600004F592739A1D4146204601F09CF8002804
:103D700006D1012184F8151184F8139184F8148177
:103D800006B0BDE8F0872DE9FF41074600208DF819
:103D90000C0014460E46D0076FF0030571D116B122
:103DA000012E0DD0B2E00C2C6BD3122C69D80C2C48
:103DB00013D00E2C13D0102C13D0122C13D0A5E03E
:103DC000082CF1D30E2CF1D8082C17D00A2C44D093
:103DD0000C2C57D00E2C69D098E0182204E0302229
:103DE00002E0402200E0502257213846FEF79DFDB8
:103DF000082256213846FEF798FD85E0102248211A
:103E00003846FEF792FD082247213846FEF78DFD21
:103E10008046022232213846FEF787FD40EA080834
:103E20000C2230213846FEF780FD40EA08080122C6
:103E3000FF213846FEF779FD40EA08083022114696
:103E40003846FEF772FD40EA08080022FF21384696
:103E5000FEF76BFD40EA080056E02822482138466C
:103E6000FEF763FD082247213846FEF75EFD8046D7
:103E7000032232213846FEF758FD40EA080809229D
:103E800027E04AE0382248213846FEF74EFD082256
:103E900047213846FEF749FD804603223221384645
:103EA000FEF743FD40EA0808082212E048221146C6
:103EB0003846FEF73AFD082247213846FEF735FD21
:103EC0008046032232213846FEF72FFD40EA0808DB
:103ED000072230213846FEF728FD40EA0808012273
:103EE000FF213846FEF721FD40EA08082022302154
:103EF0003846FEF71AFD40EA08080022FF2138463E
:103F0000FEF713FD40EA0800002807D12046FEF71F
:103F100019FF80462EB1012E23D0284604B0BDE8FB
:103F2000F08101AA0321384601F05BF8B0B902AA7A
:103F30000221384601F055F880B9424650213846F2
:103F4000FEF7F3FC50B903213846019A01F05AF903
:103F500020B902213846029A01F054F987F8E84066
:103F600012E06A460421384601F03BF850B9424657
:103F700070213846FEF7D9FC20B904213846009A52
:103F800001F040F987F8E0400028C7D13846796948
:103F9000FEF70DFB0028C1D10123002203A93846FA
:103FA000FFF7C5FBBAE707B5012302AA00F001F845
:103FB0000EBD70B51D46134600242A4600F0C8F910
:103FC00000B10124204670BD38B50546100A8DF8B1
:103FD00000000C468DF80120C80708D001236A466E
:103FE0002846FFF7E6FF01236A46214601E0022347
:103FF0006A462846FFF7DDFF38BD00207047000005
:1040000010B5044801F088F9BDE8104002210148CC
:1040100001F0A8B99C04002010B5064801F074F91D
:104020000548B0F90420B0F90210BDE8104003A023
:1040300000F0B2B99C04002028030020564C353310
:104040004C302044697374616E63653A2025646D59
:104050006D2C205374617475733A2025640D0A0029
:1040600010B5114C002240212046FCF70EFE0F49EE
:10407000012048602046FCF723FD002280212046D5
:10408000FCF703FE022000F0F7FE0122402120464B
:10409000FCF7FBFD022000F0EFFE20460022BDE809
:1040A00010404021FCF7F1BD000C0140400300200E
:1040B00010B5114C002240212046FCF7E6FD0F49C7
:1040C000012048602046FCF7FBFC012280212046AD
:1040D000FCF7DBFD022000F0CFFE0122402120464C
:1040E000FCF7D3FD022000F0C7FE20460022BDE809
:1040F00010404021FCF7C9BD000C014040030020E6
:104100002DE9F0411749184E074600244C6030460F
:10411000FCF7D6FC0025002240213046FCF7B5FD17
:10412000012000F0A9FE012240213046FCF7ADFD40
:104130006006040E80213046FCF7A2FD08B1641C25
:10414000E4B2012000F098FE6D1CEDB2082DE2D320
:1041500027B1FFF785FF2046BDE8F081FFF7A8FFF4
:10416000F9E7000040030020000C01402DE9F04178
:104170001D4614460F46064600F060F8304600F033
:1041800027F800F0ABF820B100F080F80120BDE87E
:10419000F081384600F01CF800F0A0F800F04EF86E
:1041A00046F0010000F014F800F098F808E0012C47
:1041B0000CD00120FFF7A4FF641E05F8010BA4B288
:1041C000002CF4D100F062F80020E0E70020F1E7D5
:1041D00070B5184905460120174E48603046FCF777
:1041E0006FFC002240213046FCF74FFD00242806DA
:1041F00001D5012200E0002280213046FCF745FD78
:104200006806050E012000F037FE012240213046ED
:10421000FCF73BFD012000F02FFE0022402130463C
:10422000FCF733FD012000F027FE641CE4B2082CEB
:10423000DDD370BD40030020000C014010B51149D2
:104240000120114C48602046FCF73AFC01228021F5
:104250002046FCF71AFD012240212046FCF715FDFF
:10426000022000F009FE002280212046FCF70DFD0F
:10427000022000F001FE20460022BDE8104040214F
:10428000FCF703BD40030020000C014010B51149AC
:104290000120114C48602046FCF712FC002240210E
:1042A0002046FCF7F2FC002280212046FCF7EDFCC2
:1042B000022000F0E1FD012240212046FCF7E5FC50
:1042C000012280212046FCF7E0FCBDE810400220DE
:1042D00000F0D2BD40030020000C014070B51A4E22
:1042E00001201A4D7060002431462846FCF7E8FB97
:1042F000012280212846FCF7C8FC012000F0BCFD0B
:104300000020706031462846FCF7DAFB012240218C
:104310002846FCF7BAFC012000F0AEFD07E0641C63
:10432000E4B2FA2C03D9FFF7B1FF012070BD802160
:104330002846FCF7A5FC0028F1D1002240212846A0
:10434000FCF7A3FC002070BD40030020000C0140DE
:104350002DE9F0411C4615460F460646FFF76EFF55
:104360003046FFF735FFFFF7B9FF20B1FFF78EFFAB
:104370000120BDE8F081384602E000BF14F8010BCF
:10438000FFF726FFFFF7AAFF6D1EADB2F6D2FFF7CB
:104390007DFF0020EDE700000FB4054B10B503A929
:1043A000044A029800F010F910BC5DF814FB0000FC
:1043B000654F0008500300200FB4084B10B504A946
:1043C00002AA039800F000F9044602A9002000F0B8
:1043D00092FC204610BC5DF814FB0000F74C00086E
:1043E00037B514460846064B6A46214600F0ECF8FD
:1043F00004466946002000F07EFC20463EBD0000D9
:10440000F74C00080907090E002804DB00F1E02042
:1044100080F80014704700F00F0000F1E02080F8F1
:10442000141D704702E008C8121F08C1002AFAD103
:1044300070477047002001E001C1121F002AFBD124
:10444000704700002DE9FF5F82B00021DDE90430F4
:10445000020DDDF840B0034318D044F61050A2F22C
:10446000FF3242431514119801281FD0A5EB0B0011
:10447000401C5FEA000A4FF000064E4FDFF838910B
:10448000B046504615D5CAF1000413E01198012436
:104490004AA3012801D16FEA0B010298119AC0E9E1
:1044A0000031C0E9024206B0BDE8F09FCBF1000048
:1044B000DFE704460021404A491842EB0450CDE9A9
:1044C000001012E0E00707D032463B46404649461E
:1044D000FBF775FF8046894632463B461046194633
:1044E000FBF76DFF06460F466410002CEAD1DDE9AC
:1044F0000401DDE90023BAF1000F06DAFBF75FFFE4
:1045000042464B46FBF75BFF05E0FBF7CAFF42461E
:104510004B46FBF7C6FF04460E460022284BFCF72D
:1045200047F803D84FF0FF30014607E00022254B43
:1045300020463146FBF79CFEFCF722F8102409E0E8
:10454000002C0ADB0A220023FBF761FE039B3032BA
:104550001A55641E50EA0102F2D1641C039AC4F198
:1045600011031444119A012A03D0012208430DD1EA
:104570000AE0084304D000204FF0110B119072E7BD
:10458000A3EB0B056D1E0DE05B4504DD4FF0000253
:1045900005F1010504E003DA4FF00002A5F1010581
:1045A000002AECD002981199C0E90231C0E9004517
:1045B00079E70000000014400000F03F30000000E8
:1045C0000000F0430000E03F2DE9FF4F95B09B460F
:1045D0008946064600250FE2252877D10024274684
:1045E000F84A0121059400E0044316F8013F203BFE
:1045F00001FA03F01042F7D130782A2811D06FF079
:104600002F033078A0F13002092A16D8059A44F019
:10461000020402EB820203EB42021044761C059076
:10462000EFE759F8042B0592002A03DA504244F4CC
:104630000054059044F00204761C30782E2816D1E0
:1046400016F8010F44F004042A280DD06FF02F0251
:104650003078A0F13003092B09D807EB870302EB70
:104660004303C718761CF3E759F8047B761C3078AF
:104670006C280FD006DC4C2817D068280DD06A288B
:1046800014D104E0742810D07A280FD10DE044F43E
:1046900000140AE044F4801401E044F440147278F9
:1046A000824202D104F58014761C761C307866288C
:1046B0000BD013DC582877D009DC002875D04528AA
:1046C000F6D04628F4D047281AD19DE118E0632897
:1046D00035D0642879D0652812D195E1702873D03F
:1046E00008DC6728F1D069286FD06E280DD06F28BC
:1046F00006D1B5E073282CD0752875D0782874D0F1
:104700005A46179990476D1C75E1C4F30250022870
:1047100009D003280DD0D9F8001004280DD00D6061
:1047200009F1040967E1D9F80010EA17C1E900525C
:10473000F6E7D9F800100D80F2E70D70F0E719F8F0
:10474000041B8DF8001000208DF80100EA460120BE
:1047500003E059F804AB4FF0FF3061074FF0000160
:1047600002D40DE008F101018846B9420FDA804514
:10477000F8DB1AF808100029F4D108E008F101016B
:1047800088468142FADB1AF808100029F6D105980C
:104790005B46A0EB080721463846179A00F094FACA
:1047A000284400EB080507E04DE029E10DE01AF888
:1047B000010B5A4617999047B8F10108F7D25B46AA
:1047C00021463846179A13E142E00A220092C4F3C8
:1047D00002524FF0000A022A08D059F804CB032AEB
:1047E0004FEAEC710AD00DE029E02AE009F1070157
:1047F00021F00702F2E802C1914609E00FFA8CFCB1
:104800004FEAEC71042A03D14FFA8CFC4FEAEC71A9
:10481000002907DA0A460021DCF1000C61EB0201F5
:104820002D2202E0220504D52B228DF8042001223E
:1048300003E0E20701D02022F7E7904659E00A2181
:1048400002E010220DE010214FF0000A00910BE071
:1048500010224FF0000A44F004040827009203E0FD
:1048600008224FF0000A0092C4F30252022A05D037
:1048700059F804CB0021032A08D009E009F1070107
:1048800021F00702F2E802C1914605E01FFA8CFC14
:10489000042A01D10CF0FF0C4FF00008220728D5A4
:1048A000702806D0009B83F0100353EA0A0305D05A
:1048B0000EE040228DF80420012208E05CEA0102AB
:1048C00006D030228DF804208DF805000222904693
:1048D000009B83F0080353EA0A030AD15CEA010251
:1048E00001D1620705D530228DF804204FF0010870
:1048F0007F1E582804D034A003900EA802900DE02B
:1049000036A0F9E753466046009AFBF780FC8446E0
:104910000398825C0298401E029002705CEA0100DB
:10492000F0D1029806A9081A00F1200A600702D502
:1049300024F4803400E00127574502DDA7EB0A008C
:1049400000E0002000EB0A01009005984144401A65
:104950000590E00306D45B462146179A059800F0BF
:10496000B3F90544002706E001A85A46C05D17992F
:1049700090476D1C7F1C4745F6DBE0030CD55B467A
:104980002146179A059800F09FF9054404E030206D
:104990005A46179990476D1C0099481E00900029AF
:1049A000F5DC08E0029802995A460078491C029109
:1049B000179990476D1CBAF10001AAF1010AF1DCC8
:1049C00065E10000092801003031323334353637D3
:1049D000383961626364656600000000303132334B
:1049E00034353637383941424344454600000000EB
:1049F00000F058F90544761C307800287FF4ECADBF
:104A000019B02846BDE8F08F620700D4062709F1E7
:104A1000070222F0070CFCE80223E14603F00048FD
:104A20005FEA080C02D00FF2702C0DE05FEA045C24
:104A300002D50FF2682C07E05FEAC47C02D00FF2C7
:104A4000602C01E0AFF2700C4FF0FF3823F0004310
:104A5000CDF850C065280CD006DC452809D0462882
:104A60001DD047283DD13DE0662818D067287ED16B
:104A700038E00021112F01DB112000E0781CCDE986
:104A8000000106A90EA8FFF7DDFCDDE90F010E9A73
:104A900003910021009207F1010A04914DE04FF0CB
:104AA00000400097CDE9011006A90EA8FFF7CAFC47
:104AB000DDE90F0203920E9B11990022DDF80CA094
:104AC0000093049211B9791C00EB010AB7EB0A00BC
:104AD00004D4C0F1FF3007F1010A0490AAEB0700EB
:104AE000019044E0012F00DA01270021112F01DDA0
:104AF000112000E03846CDE9000106A90EA8FFF715
:104B0000A1FCDDE90F010E9A0391002104910092AE
:104B1000BA4621070CD40399514500DA8A46BAF106
:104B2000010F05DD009AAAF10101515C302908D07E
:104B3000B84202DA10F1040F06DA0121CDE90110C2
:104B400015E0AAF10101E9E7002805DC0499014418
:104B50000491AAEB000102E0411C514500DD8A46A8
:104B60000499401A401C01904FF000400290200729
:104B700004D40198504501DBCDF8048000208DF865
:104B80004F0002980DF14F07B0F1004F25D02B20B8
:104B90000E9002984FF0020800280CDA4042029072
:104BA0002D200E9007E00A210298FBF71AFB303106
:104BB000029007F8011DB8F10001A8F10108F2DC2C
:104BC00002980028EFD1791E0E980870307800F016
:104BD000200040F0450007F8020D12A8C01B00F1AC
:104BE00007081498007800B1012000EB0A01019831
:104BF00001EBE07105984144401A401E0590E00326
:104C000006D45B462146179A059800F05DF80544E6
:104C10001498007818B15A46179990476D1CE00314
:104C200024D55B462146179A059800F04DF80544B7
:104C30001CE00498002807DBDDE90301884203DD5E
:104C40000098405C179901E0179930205A46904728
:104C5000049805F10105401C04900198401E019044
:104C600004D12E205A46179990476D1CBAF10001C5
:104C7000AAF1010ADDDC05E017F8010B5A46179985
:104C800090476D1CB8F10001A8F10108F4DC5B4607
:104C90002146179A0598ABE62D0000002B00000076
:104CA000200000002DE9F041044600251E4617466D
:104CB000880404D405E039462020B0476D1C641EEA
:104CC000F9D52846BDE8F0812DE9F04104460025DC
:104CD0001E469046C80301D5302700E020278804EF
:104CE00004D505E041463846B0476D1C641EF9D531
:104CF0002846BDE8F0810A68531C0B6010707047AD
:104D00002DE9FF47814620A1FBF747FA204E10F01E
:104D1000FF0F4FF000054FF480382DD0681E03AF11
:104D2000CDE902700124002322461AA14846CDE9AC
:104D3000004500F053F838B18DE8B0004346012239
:104D400017A1484600F04AF8039C4FF6FF72210C69
:104D50000904A0B212D0414504D1904202D113A05F
:104D600000F018FA601C0DD0B44203D113A000BFAC
:104D700000F010FABDE8FF870396E5E79042F1D115
:104D800010A0EDE712A0F3E741540D0A0000000067
:104D90000000FFFF41542B53454E534F523D00003E
:104DA00041542B56455253494F4E3D00564C3533D6
:104DB0004C302056312E300D0A0000004F4B210D93
:104DC0000A000000564C35334C300D0A000000003C
:104DD0004552524F52210D0A000000002DE9F04FBC
:104DE00089B08046DDE913761D469246894608461D
:104DF000DDF848B0FBF7CAF9C4B22246414668461E
:104E0000FBF7A0F9224649466846FBF7D4F910F0B3
:104E1000FF0F20D1A044BAF1000F08D013A16846BB
:104E2000FFF7CAFA69464046FBF7B7F908B15C4696
:104E30000FE04FF6FF700543356015E022460CA1E8
:104E40006846FFF7B9FA69464046FBF7A6F948B14C
:104E5000641CBC42F2D94FF0FF303060012009B031
:104E6000BDE8F08F281930600020F8E73F0D0A00F8
:104E700025640D0A0000000011E000BF00BF00BF64
:104E800000BF00BF00BF00BF00BF00BF00BF00BF2A
:104E900000BF00BF00BF00BF00BF00BF00BF401E7B
:104EA00080B2EAD270472DE9FF4F83B00024DDE9DC
:104EB000125A149F9B46DDF8409026466FF0310849
:104EC00000951AE06B462A464946059800F056F8C8
:104ED0000098411C06D01199084400F0FBF8049991
:104EE000884202D044463D6023E0009D49462A4660
:104EF000584600F022F86D1C761C5645E2D33D6002
:104F0000BCB95946039800F078F9040011D101A901
:104F1000039800F061F80446002001A907E01BF89F
:104F200000200B5C9A4201D0444602E0401C4845F8
:104F3000F5D307B02046BDE8F08F70B50825B2FB69
:104F4000F5F3B2FBF5F60446002005FB16228B4272
:104F500002D36FF0310070BDE15C0125954029431B
:104F6000E15470BD13B54FF47A73012269460248CB
:104F7000FCF7F4FA00981CBDD40300202DE9F0439F
:104F8000082581464FF0FF301860B2FBF5F0B2FB08
:104F9000F5F605FB10274FF0000C304615E0002217
:104FA00019F80040B04202D1FC403A460AE05FEAFC
:104FB000C47805D000FB05224FF0010C1A6003E015
:104FC0006408521CAA42F2D3401C884202D2BCF1AF
:104FD000000FE4D0BDE8F08306230A46B021FDF7B8
:104FE000BFB92DE9F04100248AB0174680468DF8FC
:104FF0001C402546ADF81840264641B1012906D08F
:10500000022904D0032912D0042929D05DE06A4680
:1050100000214046FDF717F9040005D107AA4621F3
:105020004046FDF77CF904469DF81C0015E06A46F1
:1050300000214046FDF707F9040046D16A460021E9
:105040004046FDF700F9040005D106AA512140466B
:10505000FDF77BF90446BDF81800FDF735FE2DE09D
:1050600004A94046FDF7B6F89DF81300002590B15D
:105070006A4600214046FDF7E6F804001DD106AA65
:1050800051214046FDF761F90446BDF81800FDF7CF
:105090001BFE85B28CB96A4601214046FDF7D3F864
:1050A00004000AD108AA71214046FDF74EF90446D2
:1050B000BDF82000FDF708FE86B2701B81B29DF896
:1050C00000204046FDF7EFFD05463D600AB0204652
:1050D000BDE8F0810146044A8909012052F82110F7
:1050E000002900D100207047D4020020FCF7FCFA10
:1050F0005FF00004FEF781FF48B1002407A0FFF72E
:105100004BF96420FBF7CAFCFCF7DAFAF2E714B9B2
:105110000124FEF775FFFEF77FFFF2E76E6F206652
:10512000696E6420564C35334C30210D0A00000066
:1051300070B50E4688B0054690F83041C022012176
:10514000FDF7F3FB002823D169462846FDF7C4F894
:1051500000281DD10122FF212846FDF7E6FB00288B
:1051600016D13246B6212846FDF7EFF800280FD1B8
:105170000022FF212846FDF7D8FB002808D122464F
:1051800001212846FDF7D1FB002801D185F83041E7
:1051900008B070BD0FB400B5C1B043AA68464299CB
:1051A000FFF71EF96846FAF7F1FF82B26946034835
:1051B000FCF732FA41B05DF814FB0000D403002084
:1051C000704710B500201870052913D2DFE801F0F0
:1051D0000306090C0F00C2F3001109E0C2F3C0017D
:1051E00006E0C2F3800103E0C2F3801100E0D109C0
:1051F000197010BD6FF0030010BD06230A46B021E0
:10520000FDF7A9BBF0B587B01646054661B1012987
:105210000AD0022908D0032922D004293ED06FF0F9
:10522000030407B02046F0BD05AA0021FDF70BF8E6
:105230000400F6D19DF8142031462846FDF722FDE2
:1052400080B2B0F5807F01D9FF2201E0401EC2B2DA
:10525000A5F8D82046212846FDF767FB0446E0E77D
:1052600005AA0021FCF7EFFF04469DF81420314603
:105270002846FDF707FD80B2FDF755FDADF80800A3
:105280000246A5F8D800002CCBD151212846FDF7C5
:1052900057FB0400C5D1C5F8E460C2E703A9FCF7D9
:1052A00099FF9DF80F00002798B105AA0021284614
:1052B000FCF7C9FF0400B4D102AA51212846FDF72A
:1052C00044F80446BDF80800FDF7FEFC87B2002C48
:1052D000A7D105AA01212846FCF7B5FF0400A0D1FB
:1052E0009DF8142031462846FDF7CCFC3844FDF7E4
:1052F0001AFD024671212846FDF722FB040090D1D9
:10530000C5F8DC608DE70000024AA2F11C0100F044
:10531000C3B800004806002070B50446522084F847
:105320005C01012584F85D514FF4C870A4F85E015A
:10533000FEF74EF92046FCF7EBFC04000AD10220F0
:10534000FBF7ACFB054801780548AA2903D00021EA
:105350000170204670BD0570FBE7000014060020B8
:10536000E40200202DE9FF410F460646FDF702FA50
:105370004648007810B3464D30466A786969FDF7B3
:105380001CF904007CD10220FBF788FBEA78A9789D
:105390003046FDF710F9040072D10220FBF77EFBC6
:1053A00030462969FDF705F9040069D10220FBF7B1
:1053B00075FB3046A968FDF75BF90EE001AA694666
:1053C0003046FCF773FF04005AD10220FBF766FB5E
:1053D00003AA02A93046FCF76CFF040050D102205A
:1053E000FBF75CFB00213046FCF7C9FF040047D106
:1053F0000220FBF753FB012200213046FDF76EF837
:1054000004003DD10220FBF749FB01221146304642
:10541000FDF764F8040033D10220FBF73FFB1D4881
:10542000002100EB071530466A68FDF798F8040084
:1054300026D10220FBF732FB012130462A68FDF716
:105440008EF804001CD10220FBF728FB3046A96827
:10545000FDF7ADF8040013D10220FBF71FFB2A7BF8
:1054600000213046FDF702F9040009D10220FBF7C4
:1054700015FB6A7B01213046FDF7F8F8040002D0E5
:10548000FFF79EFE204604B0BDE8F081E402002054
:1054900014060020E80200202DE9F04190460C4659
:1054A000FCF71AFF06000FD1084F257E2021BD8092
:1054B0004046FAF760FE41462846FCF7F3FD208996
:1054C0003880208978803046BDE8F08128030020AC
:1054D00000000000000000000102030406070809A4
:1054E000000000000102030408550008000000202D
:1054F0005403000000070008D4570008540300209C
:105500002C0700003444000832018210A324F42246
:1055100004291C4132031C01FF010F1301FF130179
:105520000913011013011138090124010125FF019C
:10553000751B154E2C01482C013020211530090116
:1055400054100F013104013203014083014625014B
:1055500060130127160150060151100C01529601EB
:10556000560801573001611301621301641301658C
:105570002C0166A045380B22320147140149FF0176
:105580004A69157A0A017B2C0178211B1523340105
:105590004228160144FF014526014605014040010D
:1055A0000E0601201A0143402A2E340301354427F8
:1055B000197528094B09014C05014D0418124410B6
:1055C0000C0145200147080148280167100C0170B3
:1055D000040171010172FE01763B0177B72B0D01C9
:1055E000272E80010101F80F1A8EE4491241591B40
:1055F00059F9100901014F0201FF0E0110250301A5
:10560000018401020A0103030104080105C801061F
:105610000301078D0108080109C6010A01010B02F7
:10562000010C1012010DD5010E18010F120110010D
:10563000011182011218270113D501141801151345
:1056400001160301178601180A011909011A080138
:105650001BC2011C03011D8F011E0A011FD517016A
:10566000012102012210120123D501241801252253
:10567000012601012782012810180129D5012A18C5
:10568000012B0B012C28012D78012E28012F9101CF
:10569000301601310B01321601330B01341601357E
:1056A000A10136160137A001381024013904013A4E
:1056B00028013B30013C0C013D04013E0F013F79C4
:1056C00001402801411E01422F0143870144160178
:1056D000450B01461601470B0148160149A7014A2F
:1056E00016014BA6014C1E014D04014EF31113018E
:1056F00050100F015180015209015308015401015A
:1057000055100F01560F015779015809015905012C
:105710005A1012015B60015C05015DD1015E0C0154
:105720005F3C0160102D0161D001620B0163030138
:10573000642801651001662A01673901680B016957
:1057400002016A28016B10016C2A016D61016E0C67
:10575000016F100901700F01717901721601730B4D
:1057600001741601750B0176160177A101781601F7
:1057700079A0017A1029017B0401FF0401791D0140
:105780007B2701960E0197FE0198030199EF019A7C
:1057900002019B4401730701700101FF0101190619
:1057A00071320A72056908114240121223E8802AF8
:1057B0000E2159103C400D03104399193A3C206BBF
:1057C000120E2012205B204E3099477201320319CD
:0457D0002FB910419C
:04000005080000ED02
:00000001FF
